{
	"data": {
		"bytecode": {
			"linkReferences": {},
			"object": "608060405234801561000f575f5ffd5b50604051613153380380613153833981810160405281019061003191906101c5565b81818160039081610042919061044b565b508060049081610052919061044b565b505050600960018160018154018082558091505003905f5260205f20905050505061051a565b5f604051905090565b5f5ffd5b5f5ffd5b5f5ffd5b5f5ffd5b5f601f19601f8301169050919050565b7f4e487b71000000000000000000000000000000000000000000000000000000005f52604160045260245ffd5b6100d782610091565b810181811067ffffffffffffffff821117156100f6576100f56100a1565b5b80604052505050565b5f610108610078565b905061011482826100ce565b919050565b5f67ffffffffffffffff821115610133576101326100a1565b5b61013c82610091565b9050602081019050919050565b8281835e5f83830152505050565b5f61016961016484610119565b6100ff565b9050828152602081018484840111156101855761018461008d565b5b610190848285610149565b509392505050565b5f82601f8301126101ac576101ab610089565b5b81516101bc848260208601610157565b91505092915050565b5f5f604083850312156101db576101da610081565b5b5f83015167ffffffffffffffff8111156101f8576101f7610085565b5b61020485828601610198565b925050602083015167ffffffffffffffff81111561022557610224610085565b5b61023185828601610198565b9150509250929050565b5f81519050919050565b7f4e487b71000000000000000000000000000000000000000000000000000000005f52602260045260245ffd5b5f600282049050600182168061028957607f821691505b60208210810361029c5761029b610245565b5b50919050565b5f819050815f5260205f209050919050565b5f6020601f8301049050919050565b5f82821b905092915050565b5f600883026102fe7fffffffffffffffffffffffffffffffffffffffffffffffffffffffffffffffff826102c3565b61030886836102c3565b95508019841693508086168417925050509392505050565b5f819050919050565b5f819050919050565b5f61034c61034761034284610320565b610329565b610320565b9050919050565b5f819050919050565b61036583610332565b61037961037182610353565b8484546102cf565b825550505050565b5f5f905090565b610390610381565b61039b81848461035c565b505050565b5b818110156103be576103b35f82610388565b6001810190506103a1565b5050565b601f821115610403576103d4816102a2565b6103dd846102b4565b810160208510156103ec578190505b6104006103f8856102b4565b8301826103a0565b50505b505050565b5f82821c905092915050565b5f6104235f1984600802610408565b1980831691505092915050565b5f61043b8383610414565b9150826002028217905092915050565b6104548261023b565b67ffffffffffffffff81111561046d5761046c6100a1565b5b6104778254610272565b6104828282856103c2565b5f60209050601f8311600181146104b3575f84156104a1578287015190505b6104ab8582610430565b865550610512565b601f1984166104c1866102a2565b5f5b828110156104e8578489015182556001820191506020850194506020810190506104c3565b868310156105055784890151610501601f891682610414565b8355505b6001600288020188555050505b505050505050565b612c2c806105275f395ff3fe608060405234801561000f575f5ffd5b506004361061012a575f3560e01c8063830953ab116100ab578063981b24d01161006f578063981b24d01461036a578063a457c2d71461039a578063a9059cbb146103ca578063d5abeb01146103fa578063dd62ed3e146104185761012a565b8063830953ab146102b25780638615d855146102d0578063943e82161461030057806395d89b411461031c578063976b31131461033a5761012a565b806339509351116100f257806339509351146101e85780634e71d92d146102185780634ee2cd7e14610222578063624601b61461025257806370a08231146102825761012a565b806306fdde031461012e578063095ea7b31461014c57806318160ddd1461017c57806323b872dd1461019a578063313ce567146101ca575b5f5ffd5b610136610448565b6040516101439190611c47565b60405180910390f35b61016660048036038101906101619190611cfc565b6104d8565b6040516101739190611d54565b60405180910390f35b6101846104fa565b6040516101919190611d7c565b60405180910390f35b6101b460048036038101906101af9190611d95565b610503565b6040516101c19190611d54565b60405180910390f35b6101d2610531565b6040516101df9190611e00565b60405180910390f35b61020260048036038101906101fd9190611cfc565b610538565b60405161020f9190611d54565b60405180910390f35b61022061056e565b005b61023c60048036038101906102379190611cfc565b6106f0565b6040516102499190611d7c565b60405180910390f35b61026c60048036038101906102679190611e19565b61075c565b6040516102799190611d54565b60405180910390f35b61029c60048036038101906102979190611e19565b610779565b6040516102a99190611d7c565b60405180910390f35b6102ba6107be565b6040516102c79190611d7c565b60405180910390f35b6102ea60048036038101906102e59190611ea5565b6107c3565b6040516102f79190611d7c565b60405180910390f35b61031a60048036038101906103159190611f25565b610948565b005b610324610d31565b6040516103319190611c47565b60405180910390f35b610354600480360381019061034f9190611f63565b610dc1565b6040516103619190612174565b60405180910390f35b610384600480360381019061037f9190611f63565b610fde565b6040516103919190611d7c565b60405180910390f35b6103b460048036038101906103af9190611cfc565b61100d565b6040516103c19190611d54565b60405180910390f35b6103e460048036038101906103df9190611cfc565b611082565b6040516103f19190611d54565b60405180910390f35b6104026110a4565b60405161040f9190611d7c565b60405180910390f35b610432600480360381019061042d9190612194565b6110ab565b60405161043f9190611d7c565b60405180910390f35b606060038054610457906121ff565b80601f0160208091040260200160405190810160405280929190818152602001828054610483906121ff565b80156104ce5780601f106104a5576101008083540402835291602001916104ce565b820191905f5260205f20905b8154815290600101906020018083116104b157829003601f168201915b5050505050905090565b5f5f6104e261112d565b90506104ef818585611134565b600191505092915050565b5f600254905090565b5f5f61050d61112d565b905061051a8582856112f7565b610525858585611382565b60019150509392505050565b5f5f905090565b5f5f61054261112d565b905061056381858561055485896110ab565b61055e919061225c565b611134565b600191505092915050565b600a5f3373ffffffffffffffffffffffffffffffffffffffff1673ffffffffffffffffffffffffffffffffffffffff1681526020019081526020015f205f9054906101000a900460ff16156105ef576040517f0b1327a600000000000000000000000000000000000000000000000000000000815260040160405180910390fd5b620f424060646105fd6104fa565b610607919061225c565b111561063f576040517fcbe2483100000000000000000000000000000000000000000000000000000000815260040160405180910390fd5b6001600a5f3373ffffffffffffffffffffffffffffffffffffffff1673ffffffffffffffffffffffffffffffffffffffff1681526020019081526020015f205f6101000a81548160ff02191690831515021790555061069f3360646115ee565b3373ffffffffffffffffffffffffffffffffffffffff167fd8138f8a3f377c5259ca548e70e4c2de94f129f5a11036a15b69513cba2b426a60646040516106e69190611d7c565b60405180910390a2565b5f5f5f6107398460055f8873ffffffffffffffffffffffffffffffffffffffff1673ffffffffffffffffffffffffffffffffffffffff1681526020019081526020015f2061173c565b91509150816107505761074b85610779565b610752565b805b9250505092915050565b600a602052805f5260405f205f915054906101000a900460ff1681565b5f5f5f8373ffffffffffffffffffffffffffffffffffffffff1673ffffffffffffffffffffffffffffffffffffffff1681526020019081526020015f20549050919050565b606481565b5f5f6107ce33610779565b03610805576040517f8439960d00000000000000000000000000000000000000000000000000000000815260040160405180910390fd5b5f820361083e576040517f37db7a0000000000000000000000000000000000000000000000000000000000815260040160405180910390fd5b5f610847611829565b905061085281610fde565b83111561088b576040517f0d92730000000000000000000000000000000000000000000000000000000000815260040160405180910390fd5b5f600960018160018154018082558091505003905f5260205f209060080201905081815f018190555085858260010191826108c7929190612466565b508381600201819055505f60016009805490506108e49190612533565b90503373ffffffffffffffffffffffffffffffffffffffff16817fcceac1e878b89e5262c6e5bdaf91c535ee7108c6eff3b3edb1cedc55c6be262a87868b8b60405161093394939291906125a0565b60405180910390a38093505050509392505050565b5f82148061095b57506009805490508210155b1561099d57816040517f8c720f200000000000000000000000000000000000000000000000000000000081526004016109949190611d7c565b60405180910390fd5b5f600983815481106109b2576109b16125de565b5b905f5260205f20906008020190508060070160019054906101000a900460ff1615610a09576040517f66b6cb4a00000000000000000000000000000000000000000000000000000000815260040160405180910390fd5b600b5f8481526020019081526020015f205f3373ffffffffffffffffffffffffffffffffffffffff1673ffffffffffffffffffffffffffffffffffffffff1681526020019081526020015f205f9054906101000a900460ff1615610a99576040517f7c9a1cf900000000000000000000000000000000000000000000000000000000815260040160405180910390fd5b5f610aa733835f01546106f0565b90505f8103610ae2576040517f8439960d00000000000000000000000000000000000000000000000000000000815260040160405180910390fd5b6001600b5f8681526020019081526020015f205f3373ffffffffffffffffffffffffffffffffffffffff1673ffffffffffffffffffffffffffffffffffffffff1681526020019081526020015f205f6101000a81548160ff021916908315150217905550600c5f8581526020019081526020015f2033908060018154018082558091505060019003905f5260205f20015f9091909190916101000a81548173ffffffffffffffffffffffffffffffffffffffff021916908373ffffffffffffffffffffffffffffffffffffffff1602179055505f6002811115610bc857610bc761260b565b5b836002811115610bdb57610bda61260b565b5b03610bff5780826005015f828254610bf3919061225c565b92505081905550610c66565b60016002811115610c1357610c1261260b565b5b836002811115610c2657610c2561260b565b5b03610c4a5780826004015f828254610c3e919061225c565b92505081905550610c65565b80826006015f828254610c5d919061225c565b925050819055505b5b80826003015f828254610c79919061225c565b925050819055508160020154826003015410610cda5760018260070160016101000a81548160ff021916908315150217905550816005015482600401541115610cd9576001826007015f6101000a81548160ff0219169083151502179055505b5b3373ffffffffffffffffffffffffffffffffffffffff16847f2635c84c3a8027a303ca6d6e90b1c4a9604754040372414d244aadfa647175188584604051610d2392919061267e565b60405180910390a350505050565b606060048054610d40906121ff565b80601f0160208091040260200160405190810160405280929190818152602001828054610d6c906121ff565b8015610db75780601f10610d8e57610100808354040283529160200191610db7565b820191905f5260205f20905b815481529060010190602001808311610d9a57829003601f168201915b5050505050905090565b610dc9611b8e565b5f821480610ddc57506009805490508210155b15610e1e57816040517f8c720f20000000000000000000000000000000000000000000000000000000008152600401610e159190611d7c565b60405180910390fd5b5f60098381548110610e3357610e326125de565b5b905f5260205f2090600802019050604051806101200160405280600c5f8681526020019081526020015f20805480602002602001604051908101604052809291908181526020018280548015610edb57602002820191905f5260205f20905b815f9054906101000a900473ffffffffffffffffffffffffffffffffffffffff1673ffffffffffffffffffffffffffffffffffffffff1681526020019060010190808311610e92575b50505050508152602001826001018054610ef4906121ff565b80601f0160208091040260200160405190810160405280929190818152602001828054610f20906121ff565b8015610f6b5780601f10610f4257610100808354040283529160200191610f6b565b820191905f5260205f20905b815481529060010190602001808311610f4e57829003601f168201915b505050505081526020018260020154815260200182600301548152602001826004015481526020018260050154815260200182600601548152602001826007015f9054906101000a900460ff16151581526020018260070160019054906101000a900460ff161515815250915050919050565b5f5f5f610fec84600661173c565b915091508161100257610ffd6104fa565b611004565b805b92505050919050565b5f5f61101761112d565b90505f61102482866110ab565b905083811015611069576040517f08c379a000000000000000000000000000000000000000000000000000000000815260040161106090612715565b60405180910390fd5b6110768286868403611134565b60019250505092915050565b5f5f61108c61112d565b9050611099818585611382565b600191505092915050565b620f424081565b5f60015f8473ffffffffffffffffffffffffffffffffffffffff1673ffffffffffffffffffffffffffffffffffffffff1681526020019081526020015f205f8373ffffffffffffffffffffffffffffffffffffffff1673ffffffffffffffffffffffffffffffffffffffff1681526020019081526020015f2054905092915050565b5f33905090565b5f73ffffffffffffffffffffffffffffffffffffffff168373ffffffffffffffffffffffffffffffffffffffff16036111a2576040517f08c379a0000000000000000000000000000000000000000000000000000000008152600401611199906127a3565b60405180910390fd5b5f73ffffffffffffffffffffffffffffffffffffffff168273ffffffffffffffffffffffffffffffffffffffff1603611210576040517f08c379a000000000000000000000000000000000000000000000000000000000815260040161120790612831565b60405180910390fd5b8060015f8573ffffffffffffffffffffffffffffffffffffffff1673ffffffffffffffffffffffffffffffffffffffff1681526020019081526020015f205f8473ffffffffffffffffffffffffffffffffffffffff1673ffffffffffffffffffffffffffffffffffffffff1681526020019081526020015f20819055508173ffffffffffffffffffffffffffffffffffffffff168373ffffffffffffffffffffffffffffffffffffffff167f8c5be1e5ebec7d5bd14f71427d1e84f3dd0314c0f7b2291e5b200ac8c7c3b925836040516112ea9190611d7c565b60405180910390a3505050565b5f61130284846110ab565b90507fffffffffffffffffffffffffffffffffffffffffffffffffffffffffffffffff811461137c578181101561136e576040517f08c379a000000000000000000000000000000000000000000000000000000000815260040161136590612899565b60405180910390fd5b61137b8484848403611134565b5b50505050565b5f73ffffffffffffffffffffffffffffffffffffffff168373ffffffffffffffffffffffffffffffffffffffff16036113f0576040517f08c379a00000000000000000000000000000000000000000000000000000000081526004016113e790612927565b60405180910390fd5b5f73ffffffffffffffffffffffffffffffffffffffff168273ffffffffffffffffffffffffffffffffffffffff160361145e576040517f08c379a0000000000000000000000000000000000000000000000000000000008152600401611455906129b5565b60405180910390fd5b61146983838361187d565b5f5f5f8573ffffffffffffffffffffffffffffffffffffffff1673ffffffffffffffffffffffffffffffffffffffff1681526020019081526020015f20549050818110156114ec576040517f08c379a00000000000000000000000000000000000000000000000000000000081526004016114e390612a43565b60405180910390fd5b8181035f5f8673ffffffffffffffffffffffffffffffffffffffff1673ffffffffffffffffffffffffffffffffffffffff1681526020019081526020015f2081905550815f5f8573ffffffffffffffffffffffffffffffffffffffff1673ffffffffffffffffffffffffffffffffffffffff1681526020019081526020015f205f82825401925050819055508273ffffffffffffffffffffffffffffffffffffffff168473ffffffffffffffffffffffffffffffffffffffff167fddf252ad1be2c89b69c2b068fc378daa952ba7f163c4a11628f55a4df523b3ef846040516115d59190611d7c565b60405180910390a36115e8848484611933565b50505050565b5f73ffffffffffffffffffffffffffffffffffffffff168273ffffffffffffffffffffffffffffffffffffffff160361165c576040517f08c379a000000000000000000000000000000000000000000000000000000000815260040161165390612aab565b60405180910390fd5b6116675f838361187d565b8060025f828254611678919061225c565b92505081905550805f5f8473ffffffffffffffffffffffffffffffffffffffff1673ffffffffffffffffffffffffffffffffffffffff1681526020019081526020015f205f82825401925050819055508173ffffffffffffffffffffffffffffffffffffffff165f73ffffffffffffffffffffffffffffffffffffffff167fddf252ad1be2c89b69c2b068fc378daa952ba7f163c4a11628f55a4df523b3ef836040516117259190611d7c565b60405180910390a36117385f8383611933565b5050565b5f5f5f8411611780576040517f08c379a000000000000000000000000000000000000000000000000000000000815260040161177790612b13565b60405180910390fd5b611788611938565b8411156117ca576040517f08c379a00000000000000000000000000000000000000000000000000000000081526004016117c190612b7b565b60405180910390fd5b5f6117e085855f0161194890919063ffffffff16565b9050835f018054905081036117fb575f5f9250925050611822565b6001846001018281548110611813576118126125de565b5b905f5260205f20015492509250505b9250929050565b5f61183460086119fd565b5f61183d611938565b90507f8030e83b04d87bef53480e26263266d6ca66863aa8506aca6f2559d18aa1cb678160405161186e9190611d7c565b60405180910390a18091505090565b611888838383611a11565b5f73ffffffffffffffffffffffffffffffffffffffff168373ffffffffffffffffffffffffffffffffffffffff16036118d1576118c482611a16565b6118cc611a67565b61192e565b5f73ffffffffffffffffffffffffffffffffffffffff168273ffffffffffffffffffffffffffffffffffffffff160361191a5761190d83611a16565b611915611a67565b61192d565b61192383611a16565b61192c82611a16565b5b5b505050565b505050565b5f6119436008611a7b565b905090565b5f5f83805490500361195c575f90506119f7565b5f5f90505f848054905090505b808210156119b0575f61197c8383611a87565b9050846119898783611aac565b5f0154111561199a578091506119aa565b6001816119a7919061225c565b92505b50611969565b5f821180156119d65750836119d1866001856119cc9190612533565b611aac565b5f0154145b156119f1576001826119e89190612533565b925050506119f7565b81925050505b92915050565b6001815f015f828254019250508190555050565b505050565b611a6460055f8373ffffffffffffffffffffffffffffffffffffffff1673ffffffffffffffffffffffffffffffffffffffff1681526020019081526020015f20611a5f83610779565b611acb565b50565b611a796006611a746104fa565b611acb565b565b5f815f01549050919050565b5f6002828418611a979190612bc6565b828416611aa4919061225c565b905092915050565b5f5f835f528260205f20019050611ac281611b3d565b91505092915050565b5f611ad4611938565b905080611ae2845f01611b46565b1015611b3857825f0181908060018154018082558091505060019003905f5260205f20015f90919091909150558260010182908060018154018082558091505060019003905f5260205f20015f90919091909150555b505050565b5f819050919050565b5f5f828054905003611b5a575f9050611b89565b8160018380549050611b6c9190612533565b81548110611b7d57611b7c6125de565b5b905f5260205f20015490505b919050565b60405180610120016040528060608152602001606081526020015f81526020015f81526020015f81526020015f81526020015f81526020015f151581526020015f151581525090565b5f81519050919050565b5f82825260208201905092915050565b8281835e5f83830152505050565b5f601f19601f8301169050919050565b5f611c1982611bd7565b611c238185611be1565b9350611c33818560208601611bf1565b611c3c81611bff565b840191505092915050565b5f6020820190508181035f830152611c5f8184611c0f565b905092915050565b5f5ffd5b5f5ffd5b5f73ffffffffffffffffffffffffffffffffffffffff82169050919050565b5f611c9882611c6f565b9050919050565b611ca881611c8e565b8114611cb2575f5ffd5b50565b5f81359050611cc381611c9f565b92915050565b5f819050919050565b611cdb81611cc9565b8114611ce5575f5ffd5b50565b5f81359050611cf681611cd2565b92915050565b5f5f60408385031215611d1257611d11611c67565b5b5f611d1f85828601611cb5565b9250506020611d3085828601611ce8565b9150509250929050565b5f8115159050919050565b611d4e81611d3a565b82525050565b5f602082019050611d675f830184611d45565b92915050565b611d7681611cc9565b82525050565b5f602082019050611d8f5f830184611d6d565b92915050565b5f5f5f60608486031215611dac57611dab611c67565b5b5f611db986828701611cb5565b9350506020611dca86828701611cb5565b9250506040611ddb86828701611ce8565b9150509250925092565b5f60ff82169050919050565b611dfa81611de5565b82525050565b5f602082019050611e135f830184611df1565b92915050565b5f60208284031215611e2e57611e2d611c67565b5b5f611e3b84828501611cb5565b91505092915050565b5f5ffd5b5f5ffd5b5f5ffd5b5f5f83601f840112611e6557611e64611e44565b5b8235905067ffffffffffffffff811115611e8257611e81611e48565b5b602083019150836001820283011115611e9e57611e9d611e4c565b5b9250929050565b5f5f5f60408486031215611ebc57611ebb611c67565b5b5f84013567ffffffffffffffff811115611ed957611ed8611c6b565b5b611ee586828701611e50565b93509350506020611ef886828701611ce8565b9150509250925092565b60038110611f0e575f5ffd5b50565b5f81359050611f1f81611f02565b92915050565b5f5f60408385031215611f3b57611f3a611c67565b5b5f611f4885828601611ce8565b9250506020611f5985828601611f11565b9150509250929050565b5f60208284031215611f7857611f77611c67565b5b5f611f8584828501611ce8565b91505092915050565b5f81519050919050565b5f82825260208201905092915050565b5f819050602082019050919050565b611fc081611c8e565b82525050565b5f611fd18383611fb7565b60208301905092915050565b5f602082019050919050565b5f611ff382611f8e565b611ffd8185611f98565b935061200883611fa8565b805f5b8381101561203857815161201f8882611fc6565b975061202a83611fdd565b92505060018101905061200b565b5085935050505092915050565b5f82825260208201905092915050565b5f61205f82611bd7565b6120698185612045565b9350612079818560208601611bf1565b61208281611bff565b840191505092915050565b61209681611cc9565b82525050565b6120a581611d3a565b82525050565b5f61012083015f8301518482035f8601526120c68282611fe9565b915050602083015184820360208601526120e08282612055565b91505060408301516120f5604086018261208d565b506060830151612108606086018261208d565b50608083015161211b608086018261208d565b5060a083015161212e60a086018261208d565b5060c083015161214160c086018261208d565b5060e083015161215460e086018261209c565b5061010083015161216961010086018261209c565b508091505092915050565b5f6020820190508181035f83015261218c81846120ab565b905092915050565b5f5f604083850312156121aa576121a9611c67565b5b5f6121b785828601611cb5565b92505060206121c885828601611cb5565b9150509250929050565b7f4e487b71000000000000000000000000000000000000000000000000000000005f52602260045260245ffd5b5f600282049050600182168061221657607f821691505b602082108103612229576122286121d2565b5b50919050565b7f4e487b71000000000000000000000000000000000000000000000000000000005f52601160045260245ffd5b5f61226682611cc9565b915061227183611cc9565b92508282019050808211156122895761228861222f565b5b92915050565b5f82905092915050565b7f4e487b71000000000000000000000000000000000000000000000000000000005f52604160045260245ffd5b5f819050815f5260205f209050919050565b5f6020601f8301049050919050565b5f82821b905092915050565b5f600883026123227fffffffffffffffffffffffffffffffffffffffffffffffffffffffffffffffff826122e7565b61232c86836122e7565b95508019841693508086168417925050509392505050565b5f819050919050565b5f61236761236261235d84611cc9565b612344565b611cc9565b9050919050565b5f819050919050565b6123808361234d565b61239461238c8261236e565b8484546122f3565b825550505050565b5f5f905090565b6123ab61239c565b6123b6818484612377565b505050565b5b818110156123d9576123ce5f826123a3565b6001810190506123bc565b5050565b601f82111561241e576123ef816122c6565b6123f8846122d8565b81016020851015612407578190505b61241b612413856122d8565b8301826123bb565b50505b505050565b5f82821c905092915050565b5f61243e5f1984600802612423565b1980831691505092915050565b5f612456838361242f565b9150826002028217905092915050565b612470838361228f565b67ffffffffffffffff81111561248957612488612299565b5b61249382546121ff565b61249e8282856123dd565b5f601f8311600181146124cb575f84156124b9578287013590505b6124c3858261244b565b86555061252a565b601f1984166124d9866122c6565b5f5b82811015612500578489013582556001820191506020850194506020810190506124db565b8683101561251d5784890135612519601f89168261242f565b8355505b6001600288020188555050505b50505050505050565b5f61253d82611cc9565b915061254883611cc9565b92508282039050818111156125605761255f61222f565b5b92915050565b828183375f83830152505050565b5f61257f8385611be1565b935061258c838584612566565b61259583611bff565b840190509392505050565b5f6060820190506125b35f830187611d6d565b6125c06020830186611d6d565b81810360408301526125d3818486612574565b905095945050505050565b7f4e487b71000000000000000000000000000000000000000000000000000000005f52603260045260245ffd5b7f4e487b71000000000000000000000000000000000000000000000000000000005f52602160045260245ffd5b600381106126495761264861260b565b5b50565b5f81905061265982612638565b919050565b5f6126688261264c565b9050919050565b6126788161265e565b82525050565b5f6040820190506126915f83018561266f565b61269e6020830184611d6d565b9392505050565b7f45524332303a2064656372656173656420616c6c6f77616e63652062656c6f775f8201527f207a65726f000000000000000000000000000000000000000000000000000000602082015250565b5f6126ff602583611be1565b915061270a826126a5565b604082019050919050565b5f6020820190508181035f83015261272c816126f3565b9050919050565b7f45524332303a20617070726f76652066726f6d20746865207a65726f206164645f8201527f7265737300000000000000000000000000000000000000000000000000000000602082015250565b5f61278d602483611be1565b915061279882612733565b604082019050919050565b5f6020820190508181035f8301526127ba81612781565b9050919050565b7f45524332303a20617070726f766520746f20746865207a65726f2061646472655f8201527f7373000000000000000000000000000000000000000000000000000000000000602082015250565b5f61281b602283611be1565b9150612826826127c1565b604082019050919050565b5f6020820190508181035f8301526128488161280f565b9050919050565b7f45524332303a20696e73756666696369656e7420616c6c6f77616e63650000005f82015250565b5f612883601d83611be1565b915061288e8261284f565b602082019050919050565b5f6020820190508181035f8301526128b081612877565b9050919050565b7f45524332303a207472616e736665722066726f6d20746865207a65726f2061645f8201527f6472657373000000000000000000000000000000000000000000000000000000602082015250565b5f612911602583611be1565b915061291c826128b7565b604082019050919050565b5f6020820190508181035f83015261293e81612905565b9050919050565b7f45524332303a207472616e7366657220746f20746865207a65726f20616464725f8201527f6573730000000000000000000000000000000000000000000000000000000000602082015250565b5f61299f602383611be1565b91506129aa82612945565b604082019050919050565b5f6020820190508181035f8301526129cc81612993565b9050919050565b7f45524332303a207472616e7366657220616d6f756e74206578636565647320625f8201527f616c616e63650000000000000000000000000000000000000000000000000000602082015250565b5f612a2d602683611be1565b9150612a38826129d3565b604082019050919050565b5f6020820190508181035f830152612a5a81612a21565b9050919050565b7f45524332303a206d696e7420746f20746865207a65726f2061646472657373005f82015250565b5f612a95601f83611be1565b9150612aa082612a61565b602082019050919050565b5f6020820190508181035f830152612ac281612a89565b9050919050565b7f4552433230536e617073686f743a2069642069732030000000000000000000005f82015250565b5f612afd601683611be1565b9150612b0882612ac9565b602082019050919050565b5f6020820190508181035f830152612b2a81612af1565b9050919050565b7f4552433230536e617073686f743a206e6f6e6578697374656e742069640000005f82015250565b5f612b65601d83611be1565b9150612b7082612b31565b602082019050919050565b5f6020820190508181035f830152612b9281612b59565b9050919050565b7f4e487b71000000000000000000000000000000000000000000000000000000005f52601260045260245ffd5b5f612bd082611cc9565b9150612bdb83611cc9565b925082612beb57612bea612b99565b5b82820490509291505056fea26469706673582212205e1ba3255a7ff63f262f7858b055f89f5815d13c1e05c2245ecdfed7f536212c64736f6c634300081f0033",
			"opcodes": "PUSH1 0x80 PUSH1 0x40 MSTORE CALLVALUE DUP1 ISZERO PUSH2 0xF JUMPI PUSH0 PUSH0 REVERT JUMPDEST POP PUSH1 0x40 MLOAD PUSH2 0x3153 CODESIZE SUB DUP1 PUSH2 0x3153 DUP4 CODECOPY DUP2 DUP2 ADD PUSH1 0x40 MSTORE DUP2 ADD SWAP1 PUSH2 0x31 SWAP2 SWAP1 PUSH2 0x1C5 JUMP JUMPDEST DUP2 DUP2 DUP2 PUSH1 0x3 SWAP1 DUP2 PUSH2 0x42 SWAP2 SWAP1 PUSH2 0x44B JUMP JUMPDEST POP DUP1 PUSH1 0x4 SWAP1 DUP2 PUSH2 0x52 SWAP2 SWAP1 PUSH2 0x44B JUMP JUMPDEST POP POP POP PUSH1 0x9 PUSH1 0x1 DUP2 PUSH1 0x1 DUP2 SLOAD ADD DUP1 DUP3 SSTORE DUP1 SWAP2 POP POP SUB SWAP1 PUSH0 MSTORE PUSH1 0x20 PUSH0 KECCAK256 SWAP1 POP POP POP POP PUSH2 0x51A JUMP JUMPDEST PUSH0 PUSH1 0x40 MLOAD SWAP1 POP SWAP1 JUMP JUMPDEST PUSH0 PUSH0 REVERT JUMPDEST PUSH0 PUSH0 REVERT JUMPDEST PUSH0 PUSH0 REVERT JUMPDEST PUSH0 PUSH0 REVERT JUMPDEST PUSH0 PUSH1 0x1F NOT PUSH1 0x1F DUP4 ADD AND SWAP1 POP SWAP2 SWAP1 POP JUMP JUMPDEST PUSH32 0x4E487B7100000000000000000000000000000000000000000000000000000000 PUSH0 MSTORE PUSH1 0x41 PUSH1 0x4 MSTORE PUSH1 0x24 PUSH0 REVERT JUMPDEST PUSH2 0xD7 DUP3 PUSH2 0x91 JUMP JUMPDEST DUP2 ADD DUP2 DUP2 LT PUSH8 0xFFFFFFFFFFFFFFFF DUP3 GT OR ISZERO PUSH2 0xF6 JUMPI PUSH2 0xF5 PUSH2 0xA1 JUMP JUMPDEST JUMPDEST DUP1 PUSH1 0x40 MSTORE POP POP POP JUMP JUMPDEST PUSH0 PUSH2 0x108 PUSH2 0x78 JUMP JUMPDEST SWAP1 POP PUSH2 0x114 DUP3 DUP3 PUSH2 0xCE JUMP JUMPDEST SWAP2 SWAP1 POP JUMP JUMPDEST PUSH0 PUSH8 0xFFFFFFFFFFFFFFFF DUP3 GT ISZERO PUSH2 0x133 JUMPI PUSH2 0x132 PUSH2 0xA1 JUMP JUMPDEST JUMPDEST PUSH2 0x13C DUP3 PUSH2 0x91 JUMP JUMPDEST SWAP1 POP PUSH1 0x20 DUP2 ADD SWAP1 POP SWAP2 SWAP1 POP JUMP JUMPDEST DUP3 DUP2 DUP4 MCOPY PUSH0 DUP4 DUP4 ADD MSTORE POP POP POP JUMP JUMPDEST PUSH0 PUSH2 0x169 PUSH2 0x164 DUP5 PUSH2 0x119 JUMP JUMPDEST PUSH2 0xFF JUMP JUMPDEST SWAP1 POP DUP3 DUP2 MSTORE PUSH1 0x20 DUP2 ADD DUP5 DUP5 DUP5 ADD GT ISZERO PUSH2 0x185 JUMPI PUSH2 0x184 PUSH2 0x8D JUMP JUMPDEST JUMPDEST PUSH2 0x190 DUP5 DUP3 DUP6 PUSH2 0x149 JUMP JUMPDEST POP SWAP4 SWAP3 POP POP POP JUMP JUMPDEST PUSH0 DUP3 PUSH1 0x1F DUP4 ADD SLT PUSH2 0x1AC JUMPI PUSH2 0x1AB PUSH2 0x89 JUMP JUMPDEST JUMPDEST DUP2 MLOAD PUSH2 0x1BC DUP5 DUP3 PUSH1 0x20 DUP7 ADD PUSH2 0x157 JUMP JUMPDEST SWAP2 POP POP SWAP3 SWAP2 POP POP JUMP JUMPDEST PUSH0 PUSH0 PUSH1 0x40 DUP4 DUP6 SUB SLT ISZERO PUSH2 0x1DB JUMPI PUSH2 0x1DA PUSH2 0x81 JUMP JUMPDEST JUMPDEST PUSH0 DUP4 ADD MLOAD PUSH8 0xFFFFFFFFFFFFFFFF DUP2 GT ISZERO PUSH2 0x1F8 JUMPI PUSH2 0x1F7 PUSH2 0x85 JUMP JUMPDEST JUMPDEST PUSH2 0x204 DUP6 DUP3 DUP7 ADD PUSH2 0x198 JUMP JUMPDEST SWAP3 POP POP PUSH1 0x20 DUP4 ADD MLOAD PUSH8 0xFFFFFFFFFFFFFFFF DUP2 GT ISZERO PUSH2 0x225 JUMPI PUSH2 0x224 PUSH2 0x85 JUMP JUMPDEST JUMPDEST PUSH2 0x231 DUP6 DUP3 DUP7 ADD PUSH2 0x198 JUMP JUMPDEST SWAP2 POP POP SWAP3 POP SWAP3 SWAP1 POP JUMP JUMPDEST PUSH0 DUP2 MLOAD SWAP1 POP SWAP2 SWAP1 POP JUMP JUMPDEST PUSH32 0x4E487B7100000000000000000000000000000000000000000000000000000000 PUSH0 MSTORE PUSH1 0x22 PUSH1 0x4 MSTORE PUSH1 0x24 PUSH0 REVERT JUMPDEST PUSH0 PUSH1 0x2 DUP3 DIV SWAP1 POP PUSH1 0x1 DUP3 AND DUP1 PUSH2 0x289 JUMPI PUSH1 0x7F DUP3 AND SWAP2 POP JUMPDEST PUSH1 0x20 DUP3 LT DUP2 SUB PUSH2 0x29C JUMPI PUSH2 0x29B PUSH2 0x245 JUMP JUMPDEST JUMPDEST POP SWAP2 SWAP1 POP JUMP JUMPDEST PUSH0 DUP2 SWAP1 POP DUP2 PUSH0 MSTORE PUSH1 0x20 PUSH0 KECCAK256 SWAP1 POP SWAP2 SWAP1 POP JUMP JUMPDEST PUSH0 PUSH1 0x20 PUSH1 0x1F DUP4 ADD DIV SWAP1 POP SWAP2 SWAP1 POP JUMP JUMPDEST PUSH0 DUP3 DUP3 SHL SWAP1 POP SWAP3 SWAP2 POP POP JUMP JUMPDEST PUSH0 PUSH1 0x8 DUP4 MUL PUSH2 0x2FE PUSH32 0xFFFFFFFFFFFFFFFFFFFFFFFFFFFFFFFFFFFFFFFFFFFFFFFFFFFFFFFFFFFFFFFF DUP3 PUSH2 0x2C3 JUMP JUMPDEST PUSH2 0x308 DUP7 DUP4 PUSH2 0x2C3 JUMP JUMPDEST SWAP6 POP DUP1 NOT DUP5 AND SWAP4 POP DUP1 DUP7 AND DUP5 OR SWAP3 POP POP POP SWAP4 SWAP3 POP POP POP JUMP JUMPDEST PUSH0 DUP2 SWAP1 POP SWAP2 SWAP1 POP JUMP JUMPDEST PUSH0 DUP2 SWAP1 POP SWAP2 SWAP1 POP JUMP JUMPDEST PUSH0 PUSH2 0x34C PUSH2 0x347 PUSH2 0x342 DUP5 PUSH2 0x320 JUMP JUMPDEST PUSH2 0x329 JUMP JUMPDEST PUSH2 0x320 JUMP JUMPDEST SWAP1 POP SWAP2 SWAP1 POP JUMP JUMPDEST PUSH0 DUP2 SWAP1 POP SWAP2 SWAP1 POP JUMP JUMPDEST PUSH2 0x365 DUP4 PUSH2 0x332 JUMP JUMPDEST PUSH2 0x379 PUSH2 0x371 DUP3 PUSH2 0x353 JUMP JUMPDEST DUP5 DUP5 SLOAD PUSH2 0x2CF JUMP JUMPDEST DUP3 SSTORE POP POP POP POP JUMP JUMPDEST PUSH0 PUSH0 SWAP1 POP SWAP1 JUMP JUMPDEST PUSH2 0x390 PUSH2 0x381 JUMP JUMPDEST PUSH2 0x39B DUP2 DUP5 DUP5 PUSH2 0x35C JUMP JUMPDEST POP POP POP JUMP JUMPDEST JUMPDEST DUP2 DUP2 LT ISZERO PUSH2 0x3BE JUMPI PUSH2 0x3B3 PUSH0 DUP3 PUSH2 0x388 JUMP JUMPDEST PUSH1 0x1 DUP2 ADD SWAP1 POP PUSH2 0x3A1 JUMP JUMPDEST POP POP JUMP JUMPDEST PUSH1 0x1F DUP3 GT ISZERO PUSH2 0x403 JUMPI PUSH2 0x3D4 DUP2 PUSH2 0x2A2 JUMP JUMPDEST PUSH2 0x3DD DUP5 PUSH2 0x2B4 JUMP JUMPDEST DUP2 ADD PUSH1 0x20 DUP6 LT ISZERO PUSH2 0x3EC JUMPI DUP2 SWAP1 POP JUMPDEST PUSH2 0x400 PUSH2 0x3F8 DUP6 PUSH2 0x2B4 JUMP JUMPDEST DUP4 ADD DUP3 PUSH2 0x3A0 JUMP JUMPDEST POP POP JUMPDEST POP POP POP JUMP JUMPDEST PUSH0 DUP3 DUP3 SHR SWAP1 POP SWAP3 SWAP2 POP POP JUMP JUMPDEST PUSH0 PUSH2 0x423 PUSH0 NOT DUP5 PUSH1 0x8 MUL PUSH2 0x408 JUMP JUMPDEST NOT DUP1 DUP4 AND SWAP2 POP POP SWAP3 SWAP2 POP POP JUMP JUMPDEST PUSH0 PUSH2 0x43B DUP4 DUP4 PUSH2 0x414 JUMP JUMPDEST SWAP2 POP DUP3 PUSH1 0x2 MUL DUP3 OR SWAP1 POP SWAP3 SWAP2 POP POP JUMP JUMPDEST PUSH2 0x454 DUP3 PUSH2 0x23B JUMP JUMPDEST PUSH8 0xFFFFFFFFFFFFFFFF DUP2 GT ISZERO PUSH2 0x46D JUMPI PUSH2 0x46C PUSH2 0xA1 JUMP JUMPDEST JUMPDEST PUSH2 0x477 DUP3 SLOAD PUSH2 0x272 JUMP JUMPDEST PUSH2 0x482 DUP3 DUP3 DUP6 PUSH2 0x3C2 JUMP JUMPDEST PUSH0 PUSH1 0x20 SWAP1 POP PUSH1 0x1F DUP4 GT PUSH1 0x1 DUP2 EQ PUSH2 0x4B3 JUMPI PUSH0 DUP5 ISZERO PUSH2 0x4A1 JUMPI DUP3 DUP8 ADD MLOAD SWAP1 POP JUMPDEST PUSH2 0x4AB DUP6 DUP3 PUSH2 0x430 JUMP JUMPDEST DUP7 SSTORE POP PUSH2 0x512 JUMP JUMPDEST PUSH1 0x1F NOT DUP5 AND PUSH2 0x4C1 DUP7 PUSH2 0x2A2 JUMP JUMPDEST PUSH0 JUMPDEST DUP3 DUP2 LT ISZERO PUSH2 0x4E8 JUMPI DUP5 DUP10 ADD MLOAD DUP3 SSTORE PUSH1 0x1 DUP3 ADD SWAP2 POP PUSH1 0x20 DUP6 ADD SWAP5 POP PUSH1 0x20 DUP2 ADD SWAP1 POP PUSH2 0x4C3 JUMP JUMPDEST DUP7 DUP4 LT ISZERO PUSH2 0x505 JUMPI DUP5 DUP10 ADD MLOAD PUSH2 0x501 PUSH1 0x1F DUP10 AND DUP3 PUSH2 0x414 JUMP JUMPDEST DUP4 SSTORE POP JUMPDEST PUSH1 0x1 PUSH1 0x2 DUP9 MUL ADD DUP9 SSTORE POP POP POP JUMPDEST POP POP POP POP POP POP JUMP JUMPDEST PUSH2 0x2C2C DUP1 PUSH2 0x527 PUSH0 CODECOPY PUSH0 RETURN INVALID PUSH1 0x80 PUSH1 0x40 MSTORE CALLVALUE DUP1 ISZERO PUSH2 0xF JUMPI PUSH0 PUSH0 REVERT JUMPDEST POP PUSH1 0x4 CALLDATASIZE LT PUSH2 0x12A JUMPI PUSH0 CALLDATALOAD PUSH1 0xE0 SHR DUP1 PUSH4 0x830953AB GT PUSH2 0xAB JUMPI DUP1 PUSH4 0x981B24D0 GT PUSH2 0x6F JUMPI DUP1 PUSH4 0x981B24D0 EQ PUSH2 0x36A JUMPI DUP1 PUSH4 0xA457C2D7 EQ PUSH2 0x39A JUMPI DUP1 PUSH4 0xA9059CBB EQ PUSH2 0x3CA JUMPI DUP1 PUSH4 0xD5ABEB01 EQ PUSH2 0x3FA JUMPI DUP1 PUSH4 0xDD62ED3E EQ PUSH2 0x418 JUMPI PUSH2 0x12A JUMP JUMPDEST DUP1 PUSH4 0x830953AB EQ PUSH2 0x2B2 JUMPI DUP1 PUSH4 0x8615D855 EQ PUSH2 0x2D0 JUMPI DUP1 PUSH4 0x943E8216 EQ PUSH2 0x300 JUMPI DUP1 PUSH4 0x95D89B41 EQ PUSH2 0x31C JUMPI DUP1 PUSH4 0x976B3113 EQ PUSH2 0x33A JUMPI PUSH2 0x12A JUMP JUMPDEST DUP1 PUSH4 0x39509351 GT PUSH2 0xF2 JUMPI DUP1 PUSH4 0x39509351 EQ PUSH2 0x1E8 JUMPI DUP1 PUSH4 0x4E71D92D EQ PUSH2 0x218 JUMPI DUP1 PUSH4 0x4EE2CD7E EQ PUSH2 0x222 JUMPI DUP1 PUSH4 0x624601B6 EQ PUSH2 0x252 JUMPI DUP1 PUSH4 0x70A08231 EQ PUSH2 0x282 JUMPI PUSH2 0x12A JUMP JUMPDEST DUP1 PUSH4 0x6FDDE03 EQ PUSH2 0x12E JUMPI DUP1 PUSH4 0x95EA7B3 EQ PUSH2 0x14C JUMPI DUP1 PUSH4 0x18160DDD EQ PUSH2 0x17C JUMPI DUP1 PUSH4 0x23B872DD EQ PUSH2 0x19A JUMPI DUP1 PUSH4 0x313CE567 EQ PUSH2 0x1CA JUMPI JUMPDEST PUSH0 PUSH0 REVERT JUMPDEST PUSH2 0x136 PUSH2 0x448 JUMP JUMPDEST PUSH1 0x40 MLOAD PUSH2 0x143 SWAP2 SWAP1 PUSH2 0x1C47 JUMP JUMPDEST PUSH1 0x40 MLOAD DUP1 SWAP2 SUB SWAP1 RETURN JUMPDEST PUSH2 0x166 PUSH1 0x4 DUP1 CALLDATASIZE SUB DUP2 ADD SWAP1 PUSH2 0x161 SWAP2 SWAP1 PUSH2 0x1CFC JUMP JUMPDEST PUSH2 0x4D8 JUMP JUMPDEST PUSH1 0x40 MLOAD PUSH2 0x173 SWAP2 SWAP1 PUSH2 0x1D54 JUMP JUMPDEST PUSH1 0x40 MLOAD DUP1 SWAP2 SUB SWAP1 RETURN JUMPDEST PUSH2 0x184 PUSH2 0x4FA JUMP JUMPDEST PUSH1 0x40 MLOAD PUSH2 0x191 SWAP2 SWAP1 PUSH2 0x1D7C JUMP JUMPDEST PUSH1 0x40 MLOAD DUP1 SWAP2 SUB SWAP1 RETURN JUMPDEST PUSH2 0x1B4 PUSH1 0x4 DUP1 CALLDATASIZE SUB DUP2 ADD SWAP1 PUSH2 0x1AF SWAP2 SWAP1 PUSH2 0x1D95 JUMP JUMPDEST PUSH2 0x503 JUMP JUMPDEST PUSH1 0x40 MLOAD PUSH2 0x1C1 SWAP2 SWAP1 PUSH2 0x1D54 JUMP JUMPDEST PUSH1 0x40 MLOAD DUP1 SWAP2 SUB SWAP1 RETURN JUMPDEST PUSH2 0x1D2 PUSH2 0x531 JUMP JUMPDEST PUSH1 0x40 MLOAD PUSH2 0x1DF SWAP2 SWAP1 PUSH2 0x1E00 JUMP JUMPDEST PUSH1 0x40 MLOAD DUP1 SWAP2 SUB SWAP1 RETURN JUMPDEST PUSH2 0x202 PUSH1 0x4 DUP1 CALLDATASIZE SUB DUP2 ADD SWAP1 PUSH2 0x1FD SWAP2 SWAP1 PUSH2 0x1CFC JUMP JUMPDEST PUSH2 0x538 JUMP JUMPDEST PUSH1 0x40 MLOAD PUSH2 0x20F SWAP2 SWAP1 PUSH2 0x1D54 JUMP JUMPDEST PUSH1 0x40 MLOAD DUP1 SWAP2 SUB SWAP1 RETURN JUMPDEST PUSH2 0x220 PUSH2 0x56E JUMP JUMPDEST STOP JUMPDEST PUSH2 0x23C PUSH1 0x4 DUP1 CALLDATASIZE SUB DUP2 ADD SWAP1 PUSH2 0x237 SWAP2 SWAP1 PUSH2 0x1CFC JUMP JUMPDEST PUSH2 0x6F0 JUMP JUMPDEST PUSH1 0x40 MLOAD PUSH2 0x249 SWAP2 SWAP1 PUSH2 0x1D7C JUMP JUMPDEST PUSH1 0x40 MLOAD DUP1 SWAP2 SUB SWAP1 RETURN JUMPDEST PUSH2 0x26C PUSH1 0x4 DUP1 CALLDATASIZE SUB DUP2 ADD SWAP1 PUSH2 0x267 SWAP2 SWAP1 PUSH2 0x1E19 JUMP JUMPDEST PUSH2 0x75C JUMP JUMPDEST PUSH1 0x40 MLOAD PUSH2 0x279 SWAP2 SWAP1 PUSH2 0x1D54 JUMP JUMPDEST PUSH1 0x40 MLOAD DUP1 SWAP2 SUB SWAP1 RETURN JUMPDEST PUSH2 0x29C PUSH1 0x4 DUP1 CALLDATASIZE SUB DUP2 ADD SWAP1 PUSH2 0x297 SWAP2 SWAP1 PUSH2 0x1E19 JUMP JUMPDEST PUSH2 0x779 JUMP JUMPDEST PUSH1 0x40 MLOAD PUSH2 0x2A9 SWAP2 SWAP1 PUSH2 0x1D7C JUMP JUMPDEST PUSH1 0x40 MLOAD DUP1 SWAP2 SUB SWAP1 RETURN JUMPDEST PUSH2 0x2BA PUSH2 0x7BE JUMP JUMPDEST PUSH1 0x40 MLOAD PUSH2 0x2C7 SWAP2 SWAP1 PUSH2 0x1D7C JUMP JUMPDEST PUSH1 0x40 MLOAD DUP1 SWAP2 SUB SWAP1 RETURN JUMPDEST PUSH2 0x2EA PUSH1 0x4 DUP1 CALLDATASIZE SUB DUP2 ADD SWAP1 PUSH2 0x2E5 SWAP2 SWAP1 PUSH2 0x1EA5 JUMP JUMPDEST PUSH2 0x7C3 JUMP JUMPDEST PUSH1 0x40 MLOAD PUSH2 0x2F7 SWAP2 SWAP1 PUSH2 0x1D7C JUMP JUMPDEST PUSH1 0x40 MLOAD DUP1 SWAP2 SUB SWAP1 RETURN JUMPDEST PUSH2 0x31A PUSH1 0x4 DUP1 CALLDATASIZE SUB DUP2 ADD SWAP1 PUSH2 0x315 SWAP2 SWAP1 PUSH2 0x1F25 JUMP JUMPDEST PUSH2 0x948 JUMP JUMPDEST STOP JUMPDEST PUSH2 0x324 PUSH2 0xD31 JUMP JUMPDEST PUSH1 0x40 MLOAD PUSH2 0x331 SWAP2 SWAP1 PUSH2 0x1C47 JUMP JUMPDEST PUSH1 0x40 MLOAD DUP1 SWAP2 SUB SWAP1 RETURN JUMPDEST PUSH2 0x354 PUSH1 0x4 DUP1 CALLDATASIZE SUB DUP2 ADD SWAP1 PUSH2 0x34F SWAP2 SWAP1 PUSH2 0x1F63 JUMP JUMPDEST PUSH2 0xDC1 JUMP JUMPDEST PUSH1 0x40 MLOAD PUSH2 0x361 SWAP2 SWAP1 PUSH2 0x2174 JUMP JUMPDEST PUSH1 0x40 MLOAD DUP1 SWAP2 SUB SWAP1 RETURN JUMPDEST PUSH2 0x384 PUSH1 0x4 DUP1 CALLDATASIZE SUB DUP2 ADD SWAP1 PUSH2 0x37F SWAP2 SWAP1 PUSH2 0x1F63 JUMP JUMPDEST PUSH2 0xFDE JUMP JUMPDEST PUSH1 0x40 MLOAD PUSH2 0x391 SWAP2 SWAP1 PUSH2 0x1D7C JUMP JUMPDEST PUSH1 0x40 MLOAD DUP1 SWAP2 SUB SWAP1 RETURN JUMPDEST PUSH2 0x3B4 PUSH1 0x4 DUP1 CALLDATASIZE SUB DUP2 ADD SWAP1 PUSH2 0x3AF SWAP2 SWAP1 PUSH2 0x1CFC JUMP JUMPDEST PUSH2 0x100D JUMP JUMPDEST PUSH1 0x40 MLOAD PUSH2 0x3C1 SWAP2 SWAP1 PUSH2 0x1D54 JUMP JUMPDEST PUSH1 0x40 MLOAD DUP1 SWAP2 SUB SWAP1 RETURN JUMPDEST PUSH2 0x3E4 PUSH1 0x4 DUP1 CALLDATASIZE SUB DUP2 ADD SWAP1 PUSH2 0x3DF SWAP2 SWAP1 PUSH2 0x1CFC JUMP JUMPDEST PUSH2 0x1082 JUMP JUMPDEST PUSH1 0x40 MLOAD PUSH2 0x3F1 SWAP2 SWAP1 PUSH2 0x1D54 JUMP JUMPDEST PUSH1 0x40 MLOAD DUP1 SWAP2 SUB SWAP1 RETURN JUMPDEST PUSH2 0x402 PUSH2 0x10A4 JUMP JUMPDEST PUSH1 0x40 MLOAD PUSH2 0x40F SWAP2 SWAP1 PUSH2 0x1D7C JUMP JUMPDEST PUSH1 0x40 MLOAD DUP1 SWAP2 SUB SWAP1 RETURN JUMPDEST PUSH2 0x432 PUSH1 0x4 DUP1 CALLDATASIZE SUB DUP2 ADD SWAP1 PUSH2 0x42D SWAP2 SWAP1 PUSH2 0x2194 JUMP JUMPDEST PUSH2 0x10AB JUMP JUMPDEST PUSH1 0x40 MLOAD PUSH2 0x43F SWAP2 SWAP1 PUSH2 0x1D7C JUMP JUMPDEST PUSH1 0x40 MLOAD DUP1 SWAP2 SUB SWAP1 RETURN JUMPDEST PUSH1 0x60 PUSH1 0x3 DUP1 SLOAD PUSH2 0x457 SWAP1 PUSH2 0x21FF JUMP JUMPDEST DUP1 PUSH1 0x1F ADD PUSH1 0x20 DUP1 SWAP2 DIV MUL PUSH1 0x20 ADD PUSH1 0x40 MLOAD SWAP1 DUP2 ADD PUSH1 0x40 MSTORE DUP1 SWAP3 SWAP2 SWAP1 DUP2 DUP2 MSTORE PUSH1 0x20 ADD DUP3 DUP1 SLOAD PUSH2 0x483 SWAP1 PUSH2 0x21FF JUMP JUMPDEST DUP1 ISZERO PUSH2 0x4CE JUMPI DUP1 PUSH1 0x1F LT PUSH2 0x4A5 JUMPI PUSH2 0x100 DUP1 DUP4 SLOAD DIV MUL DUP4 MSTORE SWAP2 PUSH1 0x20 ADD SWAP2 PUSH2 0x4CE JUMP JUMPDEST DUP3 ADD SWAP2 SWAP1 PUSH0 MSTORE PUSH1 0x20 PUSH0 KECCAK256 SWAP1 JUMPDEST DUP2 SLOAD DUP2 MSTORE SWAP1 PUSH1 0x1 ADD SWAP1 PUSH1 0x20 ADD DUP1 DUP4 GT PUSH2 0x4B1 JUMPI DUP3 SWAP1 SUB PUSH1 0x1F AND DUP3 ADD SWAP2 JUMPDEST POP POP POP POP POP SWAP1 POP SWAP1 JUMP JUMPDEST PUSH0 PUSH0 PUSH2 0x4E2 PUSH2 0x112D JUMP JUMPDEST SWAP1 POP PUSH2 0x4EF DUP2 DUP6 DUP6 PUSH2 0x1134 JUMP JUMPDEST PUSH1 0x1 SWAP2 POP POP SWAP3 SWAP2 POP POP JUMP JUMPDEST PUSH0 PUSH1 0x2 SLOAD SWAP1 POP SWAP1 JUMP JUMPDEST PUSH0 PUSH0 PUSH2 0x50D PUSH2 0x112D JUMP JUMPDEST SWAP1 POP PUSH2 0x51A DUP6 DUP3 DUP6 PUSH2 0x12F7 JUMP JUMPDEST PUSH2 0x525 DUP6 DUP6 DUP6 PUSH2 0x1382 JUMP JUMPDEST PUSH1 0x1 SWAP2 POP POP SWAP4 SWAP3 POP POP POP JUMP JUMPDEST PUSH0 PUSH0 SWAP1 POP SWAP1 JUMP JUMPDEST PUSH0 PUSH0 PUSH2 0x542 PUSH2 0x112D JUMP JUMPDEST SWAP1 POP PUSH2 0x563 DUP2 DUP6 DUP6 PUSH2 0x554 DUP6 DUP10 PUSH2 0x10AB JUMP JUMPDEST PUSH2 0x55E SWAP2 SWAP1 PUSH2 0x225C JUMP JUMPDEST PUSH2 0x1134 JUMP JUMPDEST PUSH1 0x1 SWAP2 POP POP SWAP3 SWAP2 POP POP JUMP JUMPDEST PUSH1 0xA PUSH0 CALLER PUSH20 0xFFFFFFFFFFFFFFFFFFFFFFFFFFFFFFFFFFFFFFFF AND PUSH20 0xFFFFFFFFFFFFFFFFFFFFFFFFFFFFFFFFFFFFFFFF AND DUP2 MSTORE PUSH1 0x20 ADD SWAP1 DUP2 MSTORE PUSH1 0x20 ADD PUSH0 KECCAK256 PUSH0 SWAP1 SLOAD SWAP1 PUSH2 0x100 EXP SWAP1 DIV PUSH1 0xFF AND ISZERO PUSH2 0x5EF JUMPI PUSH1 0x40 MLOAD PUSH32 0xB1327A600000000000000000000000000000000000000000000000000000000 DUP2 MSTORE PUSH1 0x4 ADD PUSH1 0x40 MLOAD DUP1 SWAP2 SUB SWAP1 REVERT JUMPDEST PUSH3 0xF4240 PUSH1 0x64 PUSH2 0x5FD PUSH2 0x4FA JUMP JUMPDEST PUSH2 0x607 SWAP2 SWAP1 PUSH2 0x225C JUMP JUMPDEST GT ISZERO PUSH2 0x63F JUMPI PUSH1 0x40 MLOAD PUSH32 0xCBE2483100000000000000000000000000000000000000000000000000000000 DUP2 MSTORE PUSH1 0x4 ADD PUSH1 0x40 MLOAD DUP1 SWAP2 SUB SWAP1 REVERT JUMPDEST PUSH1 0x1 PUSH1 0xA PUSH0 CALLER PUSH20 0xFFFFFFFFFFFFFFFFFFFFFFFFFFFFFFFFFFFFFFFF AND PUSH20 0xFFFFFFFFFFFFFFFFFFFFFFFFFFFFFFFFFFFFFFFF AND DUP2 MSTORE PUSH1 0x20 ADD SWAP1 DUP2 MSTORE PUSH1 0x20 ADD PUSH0 KECCAK256 PUSH0 PUSH2 0x100 EXP DUP2 SLOAD DUP2 PUSH1 0xFF MUL NOT AND SWAP1 DUP4 ISZERO ISZERO MUL OR SWAP1 SSTORE POP PUSH2 0x69F CALLER PUSH1 0x64 PUSH2 0x15EE JUMP JUMPDEST CALLER PUSH20 0xFFFFFFFFFFFFFFFFFFFFFFFFFFFFFFFFFFFFFFFF AND PUSH32 0xD8138F8A3F377C5259CA548E70E4C2DE94F129F5A11036A15B69513CBA2B426A PUSH1 0x64 PUSH1 0x40 MLOAD PUSH2 0x6E6 SWAP2 SWAP1 PUSH2 0x1D7C JUMP JUMPDEST PUSH1 0x40 MLOAD DUP1 SWAP2 SUB SWAP1 LOG2 JUMP JUMPDEST PUSH0 PUSH0 PUSH0 PUSH2 0x739 DUP5 PUSH1 0x5 PUSH0 DUP9 PUSH20 0xFFFFFFFFFFFFFFFFFFFFFFFFFFFFFFFFFFFFFFFF AND PUSH20 0xFFFFFFFFFFFFFFFFFFFFFFFFFFFFFFFFFFFFFFFF AND DUP2 MSTORE PUSH1 0x20 ADD SWAP1 DUP2 MSTORE PUSH1 0x20 ADD PUSH0 KECCAK256 PUSH2 0x173C JUMP JUMPDEST SWAP2 POP SWAP2 POP DUP2 PUSH2 0x750 JUMPI PUSH2 0x74B DUP6 PUSH2 0x779 JUMP JUMPDEST PUSH2 0x752 JUMP JUMPDEST DUP1 JUMPDEST SWAP3 POP POP POP SWAP3 SWAP2 POP POP JUMP JUMPDEST PUSH1 0xA PUSH1 0x20 MSTORE DUP1 PUSH0 MSTORE PUSH1 0x40 PUSH0 KECCAK256 PUSH0 SWAP2 POP SLOAD SWAP1 PUSH2 0x100 EXP SWAP1 DIV PUSH1 0xFF AND DUP2 JUMP JUMPDEST PUSH0 PUSH0 PUSH0 DUP4 PUSH20 0xFFFFFFFFFFFFFFFFFFFFFFFFFFFFFFFFFFFFFFFF AND PUSH20 0xFFFFFFFFFFFFFFFFFFFFFFFFFFFFFFFFFFFFFFFF AND DUP2 MSTORE PUSH1 0x20 ADD SWAP1 DUP2 MSTORE PUSH1 0x20 ADD PUSH0 KECCAK256 SLOAD SWAP1 POP SWAP2 SWAP1 POP JUMP JUMPDEST PUSH1 0x64 DUP2 JUMP JUMPDEST PUSH0 PUSH0 PUSH2 0x7CE CALLER PUSH2 0x779 JUMP JUMPDEST SUB PUSH2 0x805 JUMPI PUSH1 0x40 MLOAD PUSH32 0x8439960D00000000000000000000000000000000000000000000000000000000 DUP2 MSTORE PUSH1 0x4 ADD PUSH1 0x40 MLOAD DUP1 SWAP2 SUB SWAP1 REVERT JUMPDEST PUSH0 DUP3 SUB PUSH2 0x83E JUMPI PUSH1 0x40 MLOAD PUSH32 0x37DB7A0000000000000000000000000000000000000000000000000000000000 DUP2 MSTORE PUSH1 0x4 ADD PUSH1 0x40 MLOAD DUP1 SWAP2 SUB SWAP1 REVERT JUMPDEST PUSH0 PUSH2 0x847 PUSH2 0x1829 JUMP JUMPDEST SWAP1 POP PUSH2 0x852 DUP2 PUSH2 0xFDE JUMP JUMPDEST DUP4 GT ISZERO PUSH2 0x88B JUMPI PUSH1 0x40 MLOAD PUSH32 0xD92730000000000000000000000000000000000000000000000000000000000 DUP2 MSTORE PUSH1 0x4 ADD PUSH1 0x40 MLOAD DUP1 SWAP2 SUB SWAP1 REVERT JUMPDEST PUSH0 PUSH1 0x9 PUSH1 0x1 DUP2 PUSH1 0x1 DUP2 SLOAD ADD DUP1 DUP3 SSTORE DUP1 SWAP2 POP POP SUB SWAP1 PUSH0 MSTORE PUSH1 0x20 PUSH0 KECCAK256 SWAP1 PUSH1 0x8 MUL ADD SWAP1 POP DUP2 DUP2 PUSH0 ADD DUP2 SWAP1 SSTORE POP DUP6 DUP6 DUP3 PUSH1 0x1 ADD SWAP2 DUP3 PUSH2 0x8C7 SWAP3 SWAP2 SWAP1 PUSH2 0x2466 JUMP JUMPDEST POP DUP4 DUP2 PUSH1 0x2 ADD DUP2 SWAP1 SSTORE POP PUSH0 PUSH1 0x1 PUSH1 0x9 DUP1 SLOAD SWAP1 POP PUSH2 0x8E4 SWAP2 SWAP1 PUSH2 0x2533 JUMP JUMPDEST SWAP1 POP CALLER PUSH20 0xFFFFFFFFFFFFFFFFFFFFFFFFFFFFFFFFFFFFFFFF AND DUP2 PUSH32 0xCCEAC1E878B89E5262C6E5BDAF91C535EE7108C6EFF3B3EDB1CEDC55C6BE262A DUP8 DUP7 DUP12 DUP12 PUSH1 0x40 MLOAD PUSH2 0x933 SWAP5 SWAP4 SWAP3 SWAP2 SWAP1 PUSH2 0x25A0 JUMP JUMPDEST PUSH1 0x40 MLOAD DUP1 SWAP2 SUB SWAP1 LOG3 DUP1 SWAP4 POP POP POP POP SWAP4 SWAP3 POP POP POP JUMP JUMPDEST PUSH0 DUP3 EQ DUP1 PUSH2 0x95B JUMPI POP PUSH1 0x9 DUP1 SLOAD SWAP1 POP DUP3 LT ISZERO JUMPDEST ISZERO PUSH2 0x99D JUMPI DUP2 PUSH1 0x40 MLOAD PUSH32 0x8C720F2000000000000000000000000000000000000000000000000000000000 DUP2 MSTORE PUSH1 0x4 ADD PUSH2 0x994 SWAP2 SWAP1 PUSH2 0x1D7C JUMP JUMPDEST PUSH1 0x40 MLOAD DUP1 SWAP2 SUB SWAP1 REVERT JUMPDEST PUSH0 PUSH1 0x9 DUP4 DUP2 SLOAD DUP2 LT PUSH2 0x9B2 JUMPI PUSH2 0x9B1 PUSH2 0x25DE JUMP JUMPDEST JUMPDEST SWAP1 PUSH0 MSTORE PUSH1 0x20 PUSH0 KECCAK256 SWAP1 PUSH1 0x8 MUL ADD SWAP1 POP DUP1 PUSH1 0x7 ADD PUSH1 0x1 SWAP1 SLOAD SWAP1 PUSH2 0x100 EXP SWAP1 DIV PUSH1 0xFF AND ISZERO PUSH2 0xA09 JUMPI PUSH1 0x40 MLOAD PUSH32 0x66B6CB4A00000000000000000000000000000000000000000000000000000000 DUP2 MSTORE PUSH1 0x4 ADD PUSH1 0x40 MLOAD DUP1 SWAP2 SUB SWAP1 REVERT JUMPDEST PUSH1 0xB PUSH0 DUP5 DUP2 MSTORE PUSH1 0x20 ADD SWAP1 DUP2 MSTORE PUSH1 0x20 ADD PUSH0 KECCAK256 PUSH0 CALLER PUSH20 0xFFFFFFFFFFFFFFFFFFFFFFFFFFFFFFFFFFFFFFFF AND PUSH20 0xFFFFFFFFFFFFFFFFFFFFFFFFFFFFFFFFFFFFFFFF AND DUP2 MSTORE PUSH1 0x20 ADD SWAP1 DUP2 MSTORE PUSH1 0x20 ADD PUSH0 KECCAK256 PUSH0 SWAP1 SLOAD SWAP1 PUSH2 0x100 EXP SWAP1 DIV PUSH1 0xFF AND ISZERO PUSH2 0xA99 JUMPI PUSH1 0x40 MLOAD PUSH32 0x7C9A1CF900000000000000000000000000000000000000000000000000000000 DUP2 MSTORE PUSH1 0x4 ADD PUSH1 0x40 MLOAD DUP1 SWAP2 SUB SWAP1 REVERT JUMPDEST PUSH0 PUSH2 0xAA7 CALLER DUP4 PUSH0 ADD SLOAD PUSH2 0x6F0 JUMP JUMPDEST SWAP1 POP PUSH0 DUP2 SUB PUSH2 0xAE2 JUMPI PUSH1 0x40 MLOAD PUSH32 0x8439960D00000000000000000000000000000000000000000000000000000000 DUP2 MSTORE PUSH1 0x4 ADD PUSH1 0x40 MLOAD DUP1 SWAP2 SUB SWAP1 REVERT JUMPDEST PUSH1 0x1 PUSH1 0xB PUSH0 DUP7 DUP2 MSTORE PUSH1 0x20 ADD SWAP1 DUP2 MSTORE PUSH1 0x20 ADD PUSH0 KECCAK256 PUSH0 CALLER PUSH20 0xFFFFFFFFFFFFFFFFFFFFFFFFFFFFFFFFFFFFFFFF AND PUSH20 0xFFFFFFFFFFFFFFFFFFFFFFFFFFFFFFFFFFFFFFFF AND DUP2 MSTORE PUSH1 0x20 ADD SWAP1 DUP2 MSTORE PUSH1 0x20 ADD PUSH0 KECCAK256 PUSH0 PUSH2 0x100 EXP DUP2 SLOAD DUP2 PUSH1 0xFF MUL NOT AND SWAP1 DUP4 ISZERO ISZERO MUL OR SWAP1 SSTORE POP PUSH1 0xC PUSH0 DUP6 DUP2 MSTORE PUSH1 0x20 ADD SWAP1 DUP2 MSTORE PUSH1 0x20 ADD PUSH0 KECCAK256 CALLER SWAP1 DUP1 PUSH1 0x1 DUP2 SLOAD ADD DUP1 DUP3 SSTORE DUP1 SWAP2 POP POP PUSH1 0x1 SWAP1 SUB SWAP1 PUSH0 MSTORE PUSH1 0x20 PUSH0 KECCAK256 ADD PUSH0 SWAP1 SWAP2 SWAP1 SWAP2 SWAP1 SWAP2 PUSH2 0x100 EXP DUP2 SLOAD DUP2 PUSH20 0xFFFFFFFFFFFFFFFFFFFFFFFFFFFFFFFFFFFFFFFF MUL NOT AND SWAP1 DUP4 PUSH20 0xFFFFFFFFFFFFFFFFFFFFFFFFFFFFFFFFFFFFFFFF AND MUL OR SWAP1 SSTORE POP PUSH0 PUSH1 0x2 DUP2 GT ISZERO PUSH2 0xBC8 JUMPI PUSH2 0xBC7 PUSH2 0x260B JUMP JUMPDEST JUMPDEST DUP4 PUSH1 0x2 DUP2 GT ISZERO PUSH2 0xBDB JUMPI PUSH2 0xBDA PUSH2 0x260B JUMP JUMPDEST JUMPDEST SUB PUSH2 0xBFF JUMPI DUP1 DUP3 PUSH1 0x5 ADD PUSH0 DUP3 DUP3 SLOAD PUSH2 0xBF3 SWAP2 SWAP1 PUSH2 0x225C JUMP JUMPDEST SWAP3 POP POP DUP2 SWAP1 SSTORE POP PUSH2 0xC66 JUMP JUMPDEST PUSH1 0x1 PUSH1 0x2 DUP2 GT ISZERO PUSH2 0xC13 JUMPI PUSH2 0xC12 PUSH2 0x260B JUMP JUMPDEST JUMPDEST DUP4 PUSH1 0x2 DUP2 GT ISZERO PUSH2 0xC26 JUMPI PUSH2 0xC25 PUSH2 0x260B JUMP JUMPDEST JUMPDEST SUB PUSH2 0xC4A JUMPI DUP1 DUP3 PUSH1 0x4 ADD PUSH0 DUP3 DUP3 SLOAD PUSH2 0xC3E SWAP2 SWAP1 PUSH2 0x225C JUMP JUMPDEST SWAP3 POP POP DUP2 SWAP1 SSTORE POP PUSH2 0xC65 JUMP JUMPDEST DUP1 DUP3 PUSH1 0x6 ADD PUSH0 DUP3 DUP3 SLOAD PUSH2 0xC5D SWAP2 SWAP1 PUSH2 0x225C JUMP JUMPDEST SWAP3 POP POP DUP2 SWAP1 SSTORE POP JUMPDEST JUMPDEST DUP1 DUP3 PUSH1 0x3 ADD PUSH0 DUP3 DUP3 SLOAD PUSH2 0xC79 SWAP2 SWAP1 PUSH2 0x225C JUMP JUMPDEST SWAP3 POP POP DUP2 SWAP1 SSTORE POP DUP2 PUSH1 0x2 ADD SLOAD DUP3 PUSH1 0x3 ADD SLOAD LT PUSH2 0xCDA JUMPI PUSH1 0x1 DUP3 PUSH1 0x7 ADD PUSH1 0x1 PUSH2 0x100 EXP DUP2 SLOAD DUP2 PUSH1 0xFF MUL NOT AND SWAP1 DUP4 ISZERO ISZERO MUL OR SWAP1 SSTORE POP DUP2 PUSH1 0x5 ADD SLOAD DUP3 PUSH1 0x4 ADD SLOAD GT ISZERO PUSH2 0xCD9 JUMPI PUSH1 0x1 DUP3 PUSH1 0x7 ADD PUSH0 PUSH2 0x100 EXP DUP2 SLOAD DUP2 PUSH1 0xFF MUL NOT AND SWAP1 DUP4 ISZERO ISZERO MUL OR SWAP1 SSTORE POP JUMPDEST JUMPDEST CALLER PUSH20 0xFFFFFFFFFFFFFFFFFFFFFFFFFFFFFFFFFFFFFFFF AND DUP5 PUSH32 0x2635C84C3A8027A303CA6D6E90B1C4A9604754040372414D244AADFA64717518 DUP6 DUP5 PUSH1 0x40 MLOAD PUSH2 0xD23 SWAP3 SWAP2 SWAP1 PUSH2 0x267E JUMP JUMPDEST PUSH1 0x40 MLOAD DUP1 SWAP2 SUB SWAP1 LOG3 POP POP POP POP JUMP JUMPDEST PUSH1 0x60 PUSH1 0x4 DUP1 SLOAD PUSH2 0xD40 SWAP1 PUSH2 0x21FF JUMP JUMPDEST DUP1 PUSH1 0x1F ADD PUSH1 0x20 DUP1 SWAP2 DIV MUL PUSH1 0x20 ADD PUSH1 0x40 MLOAD SWAP1 DUP2 ADD PUSH1 0x40 MSTORE DUP1 SWAP3 SWAP2 SWAP1 DUP2 DUP2 MSTORE PUSH1 0x20 ADD DUP3 DUP1 SLOAD PUSH2 0xD6C SWAP1 PUSH2 0x21FF JUMP JUMPDEST DUP1 ISZERO PUSH2 0xDB7 JUMPI DUP1 PUSH1 0x1F LT PUSH2 0xD8E JUMPI PUSH2 0x100 DUP1 DUP4 SLOAD DIV MUL DUP4 MSTORE SWAP2 PUSH1 0x20 ADD SWAP2 PUSH2 0xDB7 JUMP JUMPDEST DUP3 ADD SWAP2 SWAP1 PUSH0 MSTORE PUSH1 0x20 PUSH0 KECCAK256 SWAP1 JUMPDEST DUP2 SLOAD DUP2 MSTORE SWAP1 PUSH1 0x1 ADD SWAP1 PUSH1 0x20 ADD DUP1 DUP4 GT PUSH2 0xD9A JUMPI DUP3 SWAP1 SUB PUSH1 0x1F AND DUP3 ADD SWAP2 JUMPDEST POP POP POP POP POP SWAP1 POP SWAP1 JUMP JUMPDEST PUSH2 0xDC9 PUSH2 0x1B8E JUMP JUMPDEST PUSH0 DUP3 EQ DUP1 PUSH2 0xDDC JUMPI POP PUSH1 0x9 DUP1 SLOAD SWAP1 POP DUP3 LT ISZERO JUMPDEST ISZERO PUSH2 0xE1E JUMPI DUP2 PUSH1 0x40 MLOAD PUSH32 0x8C720F2000000000000000000000000000000000000000000000000000000000 DUP2 MSTORE PUSH1 0x4 ADD PUSH2 0xE15 SWAP2 SWAP1 PUSH2 0x1D7C JUMP JUMPDEST PUSH1 0x40 MLOAD DUP1 SWAP2 SUB SWAP1 REVERT JUMPDEST PUSH0 PUSH1 0x9 DUP4 DUP2 SLOAD DUP2 LT PUSH2 0xE33 JUMPI PUSH2 0xE32 PUSH2 0x25DE JUMP JUMPDEST JUMPDEST SWAP1 PUSH0 MSTORE PUSH1 0x20 PUSH0 KECCAK256 SWAP1 PUSH1 0x8 MUL ADD SWAP1 POP PUSH1 0x40 MLOAD DUP1 PUSH2 0x120 ADD PUSH1 0x40 MSTORE DUP1 PUSH1 0xC PUSH0 DUP7 DUP2 MSTORE PUSH1 0x20 ADD SWAP1 DUP2 MSTORE PUSH1 0x20 ADD PUSH0 KECCAK256 DUP1 SLOAD DUP1 PUSH1 0x20 MUL PUSH1 0x20 ADD PUSH1 0x40 MLOAD SWAP1 DUP2 ADD PUSH1 0x40 MSTORE DUP1 SWAP3 SWAP2 SWAP1 DUP2 DUP2 MSTORE PUSH1 0x20 ADD DUP3 DUP1 SLOAD DUP1 ISZERO PUSH2 0xEDB JUMPI PUSH1 0x20 MUL DUP3 ADD SWAP2 SWAP1 PUSH0 MSTORE PUSH1 0x20 PUSH0 KECCAK256 SWAP1 JUMPDEST DUP2 PUSH0 SWAP1 SLOAD SWAP1 PUSH2 0x100 EXP SWAP1 DIV PUSH20 0xFFFFFFFFFFFFFFFFFFFFFFFFFFFFFFFFFFFFFFFF AND PUSH20 0xFFFFFFFFFFFFFFFFFFFFFFFFFFFFFFFFFFFFFFFF AND DUP2 MSTORE PUSH1 0x20 ADD SWAP1 PUSH1 0x1 ADD SWAP1 DUP1 DUP4 GT PUSH2 0xE92 JUMPI JUMPDEST POP POP POP POP POP DUP2 MSTORE PUSH1 0x20 ADD DUP3 PUSH1 0x1 ADD DUP1 SLOAD PUSH2 0xEF4 SWAP1 PUSH2 0x21FF JUMP JUMPDEST DUP1 PUSH1 0x1F ADD PUSH1 0x20 DUP1 SWAP2 DIV MUL PUSH1 0x20 ADD PUSH1 0x40 MLOAD SWAP1 DUP2 ADD PUSH1 0x40 MSTORE DUP1 SWAP3 SWAP2 SWAP1 DUP2 DUP2 MSTORE PUSH1 0x20 ADD DUP3 DUP1 SLOAD PUSH2 0xF20 SWAP1 PUSH2 0x21FF JUMP JUMPDEST DUP1 ISZERO PUSH2 0xF6B JUMPI DUP1 PUSH1 0x1F LT PUSH2 0xF42 JUMPI PUSH2 0x100 DUP1 DUP4 SLOAD DIV MUL DUP4 MSTORE SWAP2 PUSH1 0x20 ADD SWAP2 PUSH2 0xF6B JUMP JUMPDEST DUP3 ADD SWAP2 SWAP1 PUSH0 MSTORE PUSH1 0x20 PUSH0 KECCAK256 SWAP1 JUMPDEST DUP2 SLOAD DUP2 MSTORE SWAP1 PUSH1 0x1 ADD SWAP1 PUSH1 0x20 ADD DUP1 DUP4 GT PUSH2 0xF4E JUMPI DUP3 SWAP1 SUB PUSH1 0x1F AND DUP3 ADD SWAP2 JUMPDEST POP POP POP POP POP DUP2 MSTORE PUSH1 0x20 ADD DUP3 PUSH1 0x2 ADD SLOAD DUP2 MSTORE PUSH1 0x20 ADD DUP3 PUSH1 0x3 ADD SLOAD DUP2 MSTORE PUSH1 0x20 ADD DUP3 PUSH1 0x4 ADD SLOAD DUP2 MSTORE PUSH1 0x20 ADD DUP3 PUSH1 0x5 ADD SLOAD DUP2 MSTORE PUSH1 0x20 ADD DUP3 PUSH1 0x6 ADD SLOAD DUP2 MSTORE PUSH1 0x20 ADD DUP3 PUSH1 0x7 ADD PUSH0 SWAP1 SLOAD SWAP1 PUSH2 0x100 EXP SWAP1 DIV PUSH1 0xFF AND ISZERO ISZERO DUP2 MSTORE PUSH1 0x20 ADD DUP3 PUSH1 0x7 ADD PUSH1 0x1 SWAP1 SLOAD SWAP1 PUSH2 0x100 EXP SWAP1 DIV PUSH1 0xFF AND ISZERO ISZERO DUP2 MSTORE POP SWAP2 POP POP SWAP2 SWAP1 POP JUMP JUMPDEST PUSH0 PUSH0 PUSH0 PUSH2 0xFEC DUP5 PUSH1 0x6 PUSH2 0x173C JUMP JUMPDEST SWAP2 POP SWAP2 POP DUP2 PUSH2 0x1002 JUMPI PUSH2 0xFFD PUSH2 0x4FA JUMP JUMPDEST PUSH2 0x1004 JUMP JUMPDEST DUP1 JUMPDEST SWAP3 POP POP POP SWAP2 SWAP1 POP JUMP JUMPDEST PUSH0 PUSH0 PUSH2 0x1017 PUSH2 0x112D JUMP JUMPDEST SWAP1 POP PUSH0 PUSH2 0x1024 DUP3 DUP7 PUSH2 0x10AB JUMP JUMPDEST SWAP1 POP DUP4 DUP2 LT ISZERO PUSH2 0x1069 JUMPI PUSH1 0x40 MLOAD PUSH32 0x8C379A000000000000000000000000000000000000000000000000000000000 DUP2 MSTORE PUSH1 0x4 ADD PUSH2 0x1060 SWAP1 PUSH2 0x2715 JUMP JUMPDEST PUSH1 0x40 MLOAD DUP1 SWAP2 SUB SWAP1 REVERT JUMPDEST PUSH2 0x1076 DUP3 DUP7 DUP7 DUP5 SUB PUSH2 0x1134 JUMP JUMPDEST PUSH1 0x1 SWAP3 POP POP POP SWAP3 SWAP2 POP POP JUMP JUMPDEST PUSH0 PUSH0 PUSH2 0x108C PUSH2 0x112D JUMP JUMPDEST SWAP1 POP PUSH2 0x1099 DUP2 DUP6 DUP6 PUSH2 0x1382 JUMP JUMPDEST PUSH1 0x1 SWAP2 POP POP SWAP3 SWAP2 POP POP JUMP JUMPDEST PUSH3 0xF4240 DUP2 JUMP JUMPDEST PUSH0 PUSH1 0x1 PUSH0 DUP5 PUSH20 0xFFFFFFFFFFFFFFFFFFFFFFFFFFFFFFFFFFFFFFFF AND PUSH20 0xFFFFFFFFFFFFFFFFFFFFFFFFFFFFFFFFFFFFFFFF AND DUP2 MSTORE PUSH1 0x20 ADD SWAP1 DUP2 MSTORE PUSH1 0x20 ADD PUSH0 KECCAK256 PUSH0 DUP4 PUSH20 0xFFFFFFFFFFFFFFFFFFFFFFFFFFFFFFFFFFFFFFFF AND PUSH20 0xFFFFFFFFFFFFFFFFFFFFFFFFFFFFFFFFFFFFFFFF AND DUP2 MSTORE PUSH1 0x20 ADD SWAP1 DUP2 MSTORE PUSH1 0x20 ADD PUSH0 KECCAK256 SLOAD SWAP1 POP SWAP3 SWAP2 POP POP JUMP JUMPDEST PUSH0 CALLER SWAP1 POP SWAP1 JUMP JUMPDEST PUSH0 PUSH20 0xFFFFFFFFFFFFFFFFFFFFFFFFFFFFFFFFFFFFFFFF AND DUP4 PUSH20 0xFFFFFFFFFFFFFFFFFFFFFFFFFFFFFFFFFFFFFFFF AND SUB PUSH2 0x11A2 JUMPI PUSH1 0x40 MLOAD PUSH32 0x8C379A000000000000000000000000000000000000000000000000000000000 DUP2 MSTORE PUSH1 0x4 ADD PUSH2 0x1199 SWAP1 PUSH2 0x27A3 JUMP JUMPDEST PUSH1 0x40 MLOAD DUP1 SWAP2 SUB SWAP1 REVERT JUMPDEST PUSH0 PUSH20 0xFFFFFFFFFFFFFFFFFFFFFFFFFFFFFFFFFFFFFFFF AND DUP3 PUSH20 0xFFFFFFFFFFFFFFFFFFFFFFFFFFFFFFFFFFFFFFFF AND SUB PUSH2 0x1210 JUMPI PUSH1 0x40 MLOAD PUSH32 0x8C379A000000000000000000000000000000000000000000000000000000000 DUP2 MSTORE PUSH1 0x4 ADD PUSH2 0x1207 SWAP1 PUSH2 0x2831 JUMP JUMPDEST PUSH1 0x40 MLOAD DUP1 SWAP2 SUB SWAP1 REVERT JUMPDEST DUP1 PUSH1 0x1 PUSH0 DUP6 PUSH20 0xFFFFFFFFFFFFFFFFFFFFFFFFFFFFFFFFFFFFFFFF AND PUSH20 0xFFFFFFFFFFFFFFFFFFFFFFFFFFFFFFFFFFFFFFFF AND DUP2 MSTORE PUSH1 0x20 ADD SWAP1 DUP2 MSTORE PUSH1 0x20 ADD PUSH0 KECCAK256 PUSH0 DUP5 PUSH20 0xFFFFFFFFFFFFFFFFFFFFFFFFFFFFFFFFFFFFFFFF AND PUSH20 0xFFFFFFFFFFFFFFFFFFFFFFFFFFFFFFFFFFFFFFFF AND DUP2 MSTORE PUSH1 0x20 ADD SWAP1 DUP2 MSTORE PUSH1 0x20 ADD PUSH0 KECCAK256 DUP2 SWAP1 SSTORE POP DUP2 PUSH20 0xFFFFFFFFFFFFFFFFFFFFFFFFFFFFFFFFFFFFFFFF AND DUP4 PUSH20 0xFFFFFFFFFFFFFFFFFFFFFFFFFFFFFFFFFFFFFFFF AND PUSH32 0x8C5BE1E5EBEC7D5BD14F71427D1E84F3DD0314C0F7B2291E5B200AC8C7C3B925 DUP4 PUSH1 0x40 MLOAD PUSH2 0x12EA SWAP2 SWAP1 PUSH2 0x1D7C JUMP JUMPDEST PUSH1 0x40 MLOAD DUP1 SWAP2 SUB SWAP1 LOG3 POP POP POP JUMP JUMPDEST PUSH0 PUSH2 0x1302 DUP5 DUP5 PUSH2 0x10AB JUMP JUMPDEST SWAP1 POP PUSH32 0xFFFFFFFFFFFFFFFFFFFFFFFFFFFFFFFFFFFFFFFFFFFFFFFFFFFFFFFFFFFFFFFF DUP2 EQ PUSH2 0x137C JUMPI DUP2 DUP2 LT ISZERO PUSH2 0x136E JUMPI PUSH1 0x40 MLOAD PUSH32 0x8C379A000000000000000000000000000000000000000000000000000000000 DUP2 MSTORE PUSH1 0x4 ADD PUSH2 0x1365 SWAP1 PUSH2 0x2899 JUMP JUMPDEST PUSH1 0x40 MLOAD DUP1 SWAP2 SUB SWAP1 REVERT JUMPDEST PUSH2 0x137B DUP5 DUP5 DUP5 DUP5 SUB PUSH2 0x1134 JUMP JUMPDEST JUMPDEST POP POP POP POP JUMP JUMPDEST PUSH0 PUSH20 0xFFFFFFFFFFFFFFFFFFFFFFFFFFFFFFFFFFFFFFFF AND DUP4 PUSH20 0xFFFFFFFFFFFFFFFFFFFFFFFFFFFFFFFFFFFFFFFF AND SUB PUSH2 0x13F0 JUMPI PUSH1 0x40 MLOAD PUSH32 0x8C379A000000000000000000000000000000000000000000000000000000000 DUP2 MSTORE PUSH1 0x4 ADD PUSH2 0x13E7 SWAP1 PUSH2 0x2927 JUMP JUMPDEST PUSH1 0x40 MLOAD DUP1 SWAP2 SUB SWAP1 REVERT JUMPDEST PUSH0 PUSH20 0xFFFFFFFFFFFFFFFFFFFFFFFFFFFFFFFFFFFFFFFF AND DUP3 PUSH20 0xFFFFFFFFFFFFFFFFFFFFFFFFFFFFFFFFFFFFFFFF AND SUB PUSH2 0x145E JUMPI PUSH1 0x40 MLOAD PUSH32 0x8C379A000000000000000000000000000000000000000000000000000000000 DUP2 MSTORE PUSH1 0x4 ADD PUSH2 0x1455 SWAP1 PUSH2 0x29B5 JUMP JUMPDEST PUSH1 0x40 MLOAD DUP1 SWAP2 SUB SWAP1 REVERT JUMPDEST PUSH2 0x1469 DUP4 DUP4 DUP4 PUSH2 0x187D JUMP JUMPDEST PUSH0 PUSH0 PUSH0 DUP6 PUSH20 0xFFFFFFFFFFFFFFFFFFFFFFFFFFFFFFFFFFFFFFFF AND PUSH20 0xFFFFFFFFFFFFFFFFFFFFFFFFFFFFFFFFFFFFFFFF AND DUP2 MSTORE PUSH1 0x20 ADD SWAP1 DUP2 MSTORE PUSH1 0x20 ADD PUSH0 KECCAK256 SLOAD SWAP1 POP DUP2 DUP2 LT ISZERO PUSH2 0x14EC JUMPI PUSH1 0x40 MLOAD PUSH32 0x8C379A000000000000000000000000000000000000000000000000000000000 DUP2 MSTORE PUSH1 0x4 ADD PUSH2 0x14E3 SWAP1 PUSH2 0x2A43 JUMP JUMPDEST PUSH1 0x40 MLOAD DUP1 SWAP2 SUB SWAP1 REVERT JUMPDEST DUP2 DUP2 SUB PUSH0 PUSH0 DUP7 PUSH20 0xFFFFFFFFFFFFFFFFFFFFFFFFFFFFFFFFFFFFFFFF AND PUSH20 0xFFFFFFFFFFFFFFFFFFFFFFFFFFFFFFFFFFFFFFFF AND DUP2 MSTORE PUSH1 0x20 ADD SWAP1 DUP2 MSTORE PUSH1 0x20 ADD PUSH0 KECCAK256 DUP2 SWAP1 SSTORE POP DUP2 PUSH0 PUSH0 DUP6 PUSH20 0xFFFFFFFFFFFFFFFFFFFFFFFFFFFFFFFFFFFFFFFF AND PUSH20 0xFFFFFFFFFFFFFFFFFFFFFFFFFFFFFFFFFFFFFFFF AND DUP2 MSTORE PUSH1 0x20 ADD SWAP1 DUP2 MSTORE PUSH1 0x20 ADD PUSH0 KECCAK256 PUSH0 DUP3 DUP3 SLOAD ADD SWAP3 POP POP DUP2 SWAP1 SSTORE POP DUP3 PUSH20 0xFFFFFFFFFFFFFFFFFFFFFFFFFFFFFFFFFFFFFFFF AND DUP5 PUSH20 0xFFFFFFFFFFFFFFFFFFFFFFFFFFFFFFFFFFFFFFFF AND PUSH32 0xDDF252AD1BE2C89B69C2B068FC378DAA952BA7F163C4A11628F55A4DF523B3EF DUP5 PUSH1 0x40 MLOAD PUSH2 0x15D5 SWAP2 SWAP1 PUSH2 0x1D7C JUMP JUMPDEST PUSH1 0x40 MLOAD DUP1 SWAP2 SUB SWAP1 LOG3 PUSH2 0x15E8 DUP5 DUP5 DUP5 PUSH2 0x1933 JUMP JUMPDEST POP POP POP POP JUMP JUMPDEST PUSH0 PUSH20 0xFFFFFFFFFFFFFFFFFFFFFFFFFFFFFFFFFFFFFFFF AND DUP3 PUSH20 0xFFFFFFFFFFFFFFFFFFFFFFFFFFFFFFFFFFFFFFFF AND SUB PUSH2 0x165C JUMPI PUSH1 0x40 MLOAD PUSH32 0x8C379A000000000000000000000000000000000000000000000000000000000 DUP2 MSTORE PUSH1 0x4 ADD PUSH2 0x1653 SWAP1 PUSH2 0x2AAB JUMP JUMPDEST PUSH1 0x40 MLOAD DUP1 SWAP2 SUB SWAP1 REVERT JUMPDEST PUSH2 0x1667 PUSH0 DUP4 DUP4 PUSH2 0x187D JUMP JUMPDEST DUP1 PUSH1 0x2 PUSH0 DUP3 DUP3 SLOAD PUSH2 0x1678 SWAP2 SWAP1 PUSH2 0x225C JUMP JUMPDEST SWAP3 POP POP DUP2 SWAP1 SSTORE POP DUP1 PUSH0 PUSH0 DUP5 PUSH20 0xFFFFFFFFFFFFFFFFFFFFFFFFFFFFFFFFFFFFFFFF AND PUSH20 0xFFFFFFFFFFFFFFFFFFFFFFFFFFFFFFFFFFFFFFFF AND DUP2 MSTORE PUSH1 0x20 ADD SWAP1 DUP2 MSTORE PUSH1 0x20 ADD PUSH0 KECCAK256 PUSH0 DUP3 DUP3 SLOAD ADD SWAP3 POP POP DUP2 SWAP1 SSTORE POP DUP2 PUSH20 0xFFFFFFFFFFFFFFFFFFFFFFFFFFFFFFFFFFFFFFFF AND PUSH0 PUSH20 0xFFFFFFFFFFFFFFFFFFFFFFFFFFFFFFFFFFFFFFFF AND PUSH32 0xDDF252AD1BE2C89B69C2B068FC378DAA952BA7F163C4A11628F55A4DF523B3EF DUP4 PUSH1 0x40 MLOAD PUSH2 0x1725 SWAP2 SWAP1 PUSH2 0x1D7C JUMP JUMPDEST PUSH1 0x40 MLOAD DUP1 SWAP2 SUB SWAP1 LOG3 PUSH2 0x1738 PUSH0 DUP4 DUP4 PUSH2 0x1933 JUMP JUMPDEST POP POP JUMP JUMPDEST PUSH0 PUSH0 PUSH0 DUP5 GT PUSH2 0x1780 JUMPI PUSH1 0x40 MLOAD PUSH32 0x8C379A000000000000000000000000000000000000000000000000000000000 DUP2 MSTORE PUSH1 0x4 ADD PUSH2 0x1777 SWAP1 PUSH2 0x2B13 JUMP JUMPDEST PUSH1 0x40 MLOAD DUP1 SWAP2 SUB SWAP1 REVERT JUMPDEST PUSH2 0x1788 PUSH2 0x1938 JUMP JUMPDEST DUP5 GT ISZERO PUSH2 0x17CA JUMPI PUSH1 0x40 MLOAD PUSH32 0x8C379A000000000000000000000000000000000000000000000000000000000 DUP2 MSTORE PUSH1 0x4 ADD PUSH2 0x17C1 SWAP1 PUSH2 0x2B7B JUMP JUMPDEST PUSH1 0x40 MLOAD DUP1 SWAP2 SUB SWAP1 REVERT JUMPDEST PUSH0 PUSH2 0x17E0 DUP6 DUP6 PUSH0 ADD PUSH2 0x1948 SWAP1 SWAP2 SWAP1 PUSH4 0xFFFFFFFF AND JUMP JUMPDEST SWAP1 POP DUP4 PUSH0 ADD DUP1 SLOAD SWAP1 POP DUP2 SUB PUSH2 0x17FB JUMPI PUSH0 PUSH0 SWAP3 POP SWAP3 POP POP PUSH2 0x1822 JUMP JUMPDEST PUSH1 0x1 DUP5 PUSH1 0x1 ADD DUP3 DUP2 SLOAD DUP2 LT PUSH2 0x1813 JUMPI PUSH2 0x1812 PUSH2 0x25DE JUMP JUMPDEST JUMPDEST SWAP1 PUSH0 MSTORE PUSH1 0x20 PUSH0 KECCAK256 ADD SLOAD SWAP3 POP SWAP3 POP POP JUMPDEST SWAP3 POP SWAP3 SWAP1 POP JUMP JUMPDEST PUSH0 PUSH2 0x1834 PUSH1 0x8 PUSH2 0x19FD JUMP JUMPDEST PUSH0 PUSH2 0x183D PUSH2 0x1938 JUMP JUMPDEST SWAP1 POP PUSH32 0x8030E83B04D87BEF53480E26263266D6CA66863AA8506ACA6F2559D18AA1CB67 DUP2 PUSH1 0x40 MLOAD PUSH2 0x186E SWAP2 SWAP1 PUSH2 0x1D7C JUMP JUMPDEST PUSH1 0x40 MLOAD DUP1 SWAP2 SUB SWAP1 LOG1 DUP1 SWAP2 POP POP SWAP1 JUMP JUMPDEST PUSH2 0x1888 DUP4 DUP4 DUP4 PUSH2 0x1A11 JUMP JUMPDEST PUSH0 PUSH20 0xFFFFFFFFFFFFFFFFFFFFFFFFFFFFFFFFFFFFFFFF AND DUP4 PUSH20 0xFFFFFFFFFFFFFFFFFFFFFFFFFFFFFFFFFFFFFFFF AND SUB PUSH2 0x18D1 JUMPI PUSH2 0x18C4 DUP3 PUSH2 0x1A16 JUMP JUMPDEST PUSH2 0x18CC PUSH2 0x1A67 JUMP JUMPDEST PUSH2 0x192E JUMP JUMPDEST PUSH0 PUSH20 0xFFFFFFFFFFFFFFFFFFFFFFFFFFFFFFFFFFFFFFFF AND DUP3 PUSH20 0xFFFFFFFFFFFFFFFFFFFFFFFFFFFFFFFFFFFFFFFF AND SUB PUSH2 0x191A JUMPI PUSH2 0x190D DUP4 PUSH2 0x1A16 JUMP JUMPDEST PUSH2 0x1915 PUSH2 0x1A67 JUMP JUMPDEST PUSH2 0x192D JUMP JUMPDEST PUSH2 0x1923 DUP4 PUSH2 0x1A16 JUMP JUMPDEST PUSH2 0x192C DUP3 PUSH2 0x1A16 JUMP JUMPDEST JUMPDEST JUMPDEST POP POP POP JUMP JUMPDEST POP POP POP JUMP JUMPDEST PUSH0 PUSH2 0x1943 PUSH1 0x8 PUSH2 0x1A7B JUMP JUMPDEST SWAP1 POP SWAP1 JUMP JUMPDEST PUSH0 PUSH0 DUP4 DUP1 SLOAD SWAP1 POP SUB PUSH2 0x195C JUMPI PUSH0 SWAP1 POP PUSH2 0x19F7 JUMP JUMPDEST PUSH0 PUSH0 SWAP1 POP PUSH0 DUP5 DUP1 SLOAD SWAP1 POP SWAP1 POP JUMPDEST DUP1 DUP3 LT ISZERO PUSH2 0x19B0 JUMPI PUSH0 PUSH2 0x197C DUP4 DUP4 PUSH2 0x1A87 JUMP JUMPDEST SWAP1 POP DUP5 PUSH2 0x1989 DUP8 DUP4 PUSH2 0x1AAC JUMP JUMPDEST PUSH0 ADD SLOAD GT ISZERO PUSH2 0x199A JUMPI DUP1 SWAP2 POP PUSH2 0x19AA JUMP JUMPDEST PUSH1 0x1 DUP2 PUSH2 0x19A7 SWAP2 SWAP1 PUSH2 0x225C JUMP JUMPDEST SWAP3 POP JUMPDEST POP PUSH2 0x1969 JUMP JUMPDEST PUSH0 DUP3 GT DUP1 ISZERO PUSH2 0x19D6 JUMPI POP DUP4 PUSH2 0x19D1 DUP7 PUSH1 0x1 DUP6 PUSH2 0x19CC SWAP2 SWAP1 PUSH2 0x2533 JUMP JUMPDEST PUSH2 0x1AAC JUMP JUMPDEST PUSH0 ADD SLOAD EQ JUMPDEST ISZERO PUSH2 0x19F1 JUMPI PUSH1 0x1 DUP3 PUSH2 0x19E8 SWAP2 SWAP1 PUSH2 0x2533 JUMP JUMPDEST SWAP3 POP POP POP PUSH2 0x19F7 JUMP JUMPDEST DUP2 SWAP3 POP POP POP JUMPDEST SWAP3 SWAP2 POP POP JUMP JUMPDEST PUSH1 0x1 DUP2 PUSH0 ADD PUSH0 DUP3 DUP3 SLOAD ADD SWAP3 POP POP DUP2 SWAP1 SSTORE POP POP JUMP JUMPDEST POP POP POP JUMP JUMPDEST PUSH2 0x1A64 PUSH1 0x5 PUSH0 DUP4 PUSH20 0xFFFFFFFFFFFFFFFFFFFFFFFFFFFFFFFFFFFFFFFF AND PUSH20 0xFFFFFFFFFFFFFFFFFFFFFFFFFFFFFFFFFFFFFFFF AND DUP2 MSTORE PUSH1 0x20 ADD SWAP1 DUP2 MSTORE PUSH1 0x20 ADD PUSH0 KECCAK256 PUSH2 0x1A5F DUP4 PUSH2 0x779 JUMP JUMPDEST PUSH2 0x1ACB JUMP JUMPDEST POP JUMP JUMPDEST PUSH2 0x1A79 PUSH1 0x6 PUSH2 0x1A74 PUSH2 0x4FA JUMP JUMPDEST PUSH2 0x1ACB JUMP JUMPDEST JUMP JUMPDEST PUSH0 DUP2 PUSH0 ADD SLOAD SWAP1 POP SWAP2 SWAP1 POP JUMP JUMPDEST PUSH0 PUSH1 0x2 DUP3 DUP5 XOR PUSH2 0x1A97 SWAP2 SWAP1 PUSH2 0x2BC6 JUMP JUMPDEST DUP3 DUP5 AND PUSH2 0x1AA4 SWAP2 SWAP1 PUSH2 0x225C JUMP JUMPDEST SWAP1 POP SWAP3 SWAP2 POP POP JUMP JUMPDEST PUSH0 PUSH0 DUP4 PUSH0 MSTORE DUP3 PUSH1 0x20 PUSH0 KECCAK256 ADD SWAP1 POP PUSH2 0x1AC2 DUP2 PUSH2 0x1B3D JUMP JUMPDEST SWAP2 POP POP SWAP3 SWAP2 POP POP JUMP JUMPDEST PUSH0 PUSH2 0x1AD4 PUSH2 0x1938 JUMP JUMPDEST SWAP1 POP DUP1 PUSH2 0x1AE2 DUP5 PUSH0 ADD PUSH2 0x1B46 JUMP JUMPDEST LT ISZERO PUSH2 0x1B38 JUMPI DUP3 PUSH0 ADD DUP2 SWAP1 DUP1 PUSH1 0x1 DUP2 SLOAD ADD DUP1 DUP3 SSTORE DUP1 SWAP2 POP POP PUSH1 0x1 SWAP1 SUB SWAP1 PUSH0 MSTORE PUSH1 0x20 PUSH0 KECCAK256 ADD PUSH0 SWAP1 SWAP2 SWAP1 SWAP2 SWAP1 SWAP2 POP SSTORE DUP3 PUSH1 0x1 ADD DUP3 SWAP1 DUP1 PUSH1 0x1 DUP2 SLOAD ADD DUP1 DUP3 SSTORE DUP1 SWAP2 POP POP PUSH1 0x1 SWAP1 SUB SWAP1 PUSH0 MSTORE PUSH1 0x20 PUSH0 KECCAK256 ADD PUSH0 SWAP1 SWAP2 SWAP1 SWAP2 SWAP1 SWAP2 POP SSTORE JUMPDEST POP POP POP JUMP JUMPDEST PUSH0 DUP2 SWAP1 POP SWAP2 SWAP1 POP JUMP JUMPDEST PUSH0 PUSH0 DUP3 DUP1 SLOAD SWAP1 POP SUB PUSH2 0x1B5A JUMPI PUSH0 SWAP1 POP PUSH2 0x1B89 JUMP JUMPDEST DUP2 PUSH1 0x1 DUP4 DUP1 SLOAD SWAP1 POP PUSH2 0x1B6C SWAP2 SWAP1 PUSH2 0x2533 JUMP JUMPDEST DUP2 SLOAD DUP2 LT PUSH2 0x1B7D JUMPI PUSH2 0x1B7C PUSH2 0x25DE JUMP JUMPDEST JUMPDEST SWAP1 PUSH0 MSTORE PUSH1 0x20 PUSH0 KECCAK256 ADD SLOAD SWAP1 POP JUMPDEST SWAP2 SWAP1 POP JUMP JUMPDEST PUSH1 0x40 MLOAD DUP1 PUSH2 0x120 ADD PUSH1 0x40 MSTORE DUP1 PUSH1 0x60 DUP2 MSTORE PUSH1 0x20 ADD PUSH1 0x60 DUP2 MSTORE PUSH1 0x20 ADD PUSH0 DUP2 MSTORE PUSH1 0x20 ADD PUSH0 DUP2 MSTORE PUSH1 0x20 ADD PUSH0 DUP2 MSTORE PUSH1 0x20 ADD PUSH0 DUP2 MSTORE PUSH1 0x20 ADD PUSH0 DUP2 MSTORE PUSH1 0x20 ADD PUSH0 ISZERO ISZERO DUP2 MSTORE PUSH1 0x20 ADD PUSH0 ISZERO ISZERO DUP2 MSTORE POP SWAP1 JUMP JUMPDEST PUSH0 DUP2 MLOAD SWAP1 POP SWAP2 SWAP1 POP JUMP JUMPDEST PUSH0 DUP3 DUP3 MSTORE PUSH1 0x20 DUP3 ADD SWAP1 POP SWAP3 SWAP2 POP POP JUMP JUMPDEST DUP3 DUP2 DUP4 MCOPY PUSH0 DUP4 DUP4 ADD MSTORE POP POP POP JUMP JUMPDEST PUSH0 PUSH1 0x1F NOT PUSH1 0x1F DUP4 ADD AND SWAP1 POP SWAP2 SWAP1 POP JUMP JUMPDEST PUSH0 PUSH2 0x1C19 DUP3 PUSH2 0x1BD7 JUMP JUMPDEST PUSH2 0x1C23 DUP2 DUP6 PUSH2 0x1BE1 JUMP JUMPDEST SWAP4 POP PUSH2 0x1C33 DUP2 DUP6 PUSH1 0x20 DUP7 ADD PUSH2 0x1BF1 JUMP JUMPDEST PUSH2 0x1C3C DUP2 PUSH2 0x1BFF JUMP JUMPDEST DUP5 ADD SWAP2 POP POP SWAP3 SWAP2 POP POP JUMP JUMPDEST PUSH0 PUSH1 0x20 DUP3 ADD SWAP1 POP DUP2 DUP2 SUB PUSH0 DUP4 ADD MSTORE PUSH2 0x1C5F DUP2 DUP5 PUSH2 0x1C0F JUMP JUMPDEST SWAP1 POP SWAP3 SWAP2 POP POP JUMP JUMPDEST PUSH0 PUSH0 REVERT JUMPDEST PUSH0 PUSH0 REVERT JUMPDEST PUSH0 PUSH20 0xFFFFFFFFFFFFFFFFFFFFFFFFFFFFFFFFFFFFFFFF DUP3 AND SWAP1 POP SWAP2 SWAP1 POP JUMP JUMPDEST PUSH0 PUSH2 0x1C98 DUP3 PUSH2 0x1C6F JUMP JUMPDEST SWAP1 POP SWAP2 SWAP1 POP JUMP JUMPDEST PUSH2 0x1CA8 DUP2 PUSH2 0x1C8E JUMP JUMPDEST DUP2 EQ PUSH2 0x1CB2 JUMPI PUSH0 PUSH0 REVERT JUMPDEST POP JUMP JUMPDEST PUSH0 DUP2 CALLDATALOAD SWAP1 POP PUSH2 0x1CC3 DUP2 PUSH2 0x1C9F JUMP JUMPDEST SWAP3 SWAP2 POP POP JUMP JUMPDEST PUSH0 DUP2 SWAP1 POP SWAP2 SWAP1 POP JUMP JUMPDEST PUSH2 0x1CDB DUP2 PUSH2 0x1CC9 JUMP JUMPDEST DUP2 EQ PUSH2 0x1CE5 JUMPI PUSH0 PUSH0 REVERT JUMPDEST POP JUMP JUMPDEST PUSH0 DUP2 CALLDATALOAD SWAP1 POP PUSH2 0x1CF6 DUP2 PUSH2 0x1CD2 JUMP JUMPDEST SWAP3 SWAP2 POP POP JUMP JUMPDEST PUSH0 PUSH0 PUSH1 0x40 DUP4 DUP6 SUB SLT ISZERO PUSH2 0x1D12 JUMPI PUSH2 0x1D11 PUSH2 0x1C67 JUMP JUMPDEST JUMPDEST PUSH0 PUSH2 0x1D1F DUP6 DUP3 DUP7 ADD PUSH2 0x1CB5 JUMP JUMPDEST SWAP3 POP POP PUSH1 0x20 PUSH2 0x1D30 DUP6 DUP3 DUP7 ADD PUSH2 0x1CE8 JUMP JUMPDEST SWAP2 POP POP SWAP3 POP SWAP3 SWAP1 POP JUMP JUMPDEST PUSH0 DUP2 ISZERO ISZERO SWAP1 POP SWAP2 SWAP1 POP JUMP JUMPDEST PUSH2 0x1D4E DUP2 PUSH2 0x1D3A JUMP JUMPDEST DUP3 MSTORE POP POP JUMP JUMPDEST PUSH0 PUSH1 0x20 DUP3 ADD SWAP1 POP PUSH2 0x1D67 PUSH0 DUP4 ADD DUP5 PUSH2 0x1D45 JUMP JUMPDEST SWAP3 SWAP2 POP POP JUMP JUMPDEST PUSH2 0x1D76 DUP2 PUSH2 0x1CC9 JUMP JUMPDEST DUP3 MSTORE POP POP JUMP JUMPDEST PUSH0 PUSH1 0x20 DUP3 ADD SWAP1 POP PUSH2 0x1D8F PUSH0 DUP4 ADD DUP5 PUSH2 0x1D6D JUMP JUMPDEST SWAP3 SWAP2 POP POP JUMP JUMPDEST PUSH0 PUSH0 PUSH0 PUSH1 0x60 DUP5 DUP7 SUB SLT ISZERO PUSH2 0x1DAC JUMPI PUSH2 0x1DAB PUSH2 0x1C67 JUMP JUMPDEST JUMPDEST PUSH0 PUSH2 0x1DB9 DUP7 DUP3 DUP8 ADD PUSH2 0x1CB5 JUMP JUMPDEST SWAP4 POP POP PUSH1 0x20 PUSH2 0x1DCA DUP7 DUP3 DUP8 ADD PUSH2 0x1CB5 JUMP JUMPDEST SWAP3 POP POP PUSH1 0x40 PUSH2 0x1DDB DUP7 DUP3 DUP8 ADD PUSH2 0x1CE8 JUMP JUMPDEST SWAP2 POP POP SWAP3 POP SWAP3 POP SWAP3 JUMP JUMPDEST PUSH0 PUSH1 0xFF DUP3 AND SWAP1 POP SWAP2 SWAP1 POP JUMP JUMPDEST PUSH2 0x1DFA DUP2 PUSH2 0x1DE5 JUMP JUMPDEST DUP3 MSTORE POP POP JUMP JUMPDEST PUSH0 PUSH1 0x20 DUP3 ADD SWAP1 POP PUSH2 0x1E13 PUSH0 DUP4 ADD DUP5 PUSH2 0x1DF1 JUMP JUMPDEST SWAP3 SWAP2 POP POP JUMP JUMPDEST PUSH0 PUSH1 0x20 DUP3 DUP5 SUB SLT ISZERO PUSH2 0x1E2E JUMPI PUSH2 0x1E2D PUSH2 0x1C67 JUMP JUMPDEST JUMPDEST PUSH0 PUSH2 0x1E3B DUP5 DUP3 DUP6 ADD PUSH2 0x1CB5 JUMP JUMPDEST SWAP2 POP POP SWAP3 SWAP2 POP POP JUMP JUMPDEST PUSH0 PUSH0 REVERT JUMPDEST PUSH0 PUSH0 REVERT JUMPDEST PUSH0 PUSH0 REVERT JUMPDEST PUSH0 PUSH0 DUP4 PUSH1 0x1F DUP5 ADD SLT PUSH2 0x1E65 JUMPI PUSH2 0x1E64 PUSH2 0x1E44 JUMP JUMPDEST JUMPDEST DUP3 CALLDATALOAD SWAP1 POP PUSH8 0xFFFFFFFFFFFFFFFF DUP2 GT ISZERO PUSH2 0x1E82 JUMPI PUSH2 0x1E81 PUSH2 0x1E48 JUMP JUMPDEST JUMPDEST PUSH1 0x20 DUP4 ADD SWAP2 POP DUP4 PUSH1 0x1 DUP3 MUL DUP4 ADD GT ISZERO PUSH2 0x1E9E JUMPI PUSH2 0x1E9D PUSH2 0x1E4C JUMP JUMPDEST JUMPDEST SWAP3 POP SWAP3 SWAP1 POP JUMP JUMPDEST PUSH0 PUSH0 PUSH0 PUSH1 0x40 DUP5 DUP7 SUB SLT ISZERO PUSH2 0x1EBC JUMPI PUSH2 0x1EBB PUSH2 0x1C67 JUMP JUMPDEST JUMPDEST PUSH0 DUP5 ADD CALLDATALOAD PUSH8 0xFFFFFFFFFFFFFFFF DUP2 GT ISZERO PUSH2 0x1ED9 JUMPI PUSH2 0x1ED8 PUSH2 0x1C6B JUMP JUMPDEST JUMPDEST PUSH2 0x1EE5 DUP7 DUP3 DUP8 ADD PUSH2 0x1E50 JUMP JUMPDEST SWAP4 POP SWAP4 POP POP PUSH1 0x20 PUSH2 0x1EF8 DUP7 DUP3 DUP8 ADD PUSH2 0x1CE8 JUMP JUMPDEST SWAP2 POP POP SWAP3 POP SWAP3 POP SWAP3 JUMP JUMPDEST PUSH1 0x3 DUP2 LT PUSH2 0x1F0E JUMPI PUSH0 PUSH0 REVERT JUMPDEST POP JUMP JUMPDEST PUSH0 DUP2 CALLDATALOAD SWAP1 POP PUSH2 0x1F1F DUP2 PUSH2 0x1F02 JUMP JUMPDEST SWAP3 SWAP2 POP POP JUMP JUMPDEST PUSH0 PUSH0 PUSH1 0x40 DUP4 DUP6 SUB SLT ISZERO PUSH2 0x1F3B JUMPI PUSH2 0x1F3A PUSH2 0x1C67 JUMP JUMPDEST JUMPDEST PUSH0 PUSH2 0x1F48 DUP6 DUP3 DUP7 ADD PUSH2 0x1CE8 JUMP JUMPDEST SWAP3 POP POP PUSH1 0x20 PUSH2 0x1F59 DUP6 DUP3 DUP7 ADD PUSH2 0x1F11 JUMP JUMPDEST SWAP2 POP POP SWAP3 POP SWAP3 SWAP1 POP JUMP JUMPDEST PUSH0 PUSH1 0x20 DUP3 DUP5 SUB SLT ISZERO PUSH2 0x1F78 JUMPI PUSH2 0x1F77 PUSH2 0x1C67 JUMP JUMPDEST JUMPDEST PUSH0 PUSH2 0x1F85 DUP5 DUP3 DUP6 ADD PUSH2 0x1CE8 JUMP JUMPDEST SWAP2 POP POP SWAP3 SWAP2 POP POP JUMP JUMPDEST PUSH0 DUP2 MLOAD SWAP1 POP SWAP2 SWAP1 POP JUMP JUMPDEST PUSH0 DUP3 DUP3 MSTORE PUSH1 0x20 DUP3 ADD SWAP1 POP SWAP3 SWAP2 POP POP JUMP JUMPDEST PUSH0 DUP2 SWAP1 POP PUSH1 0x20 DUP3 ADD SWAP1 POP SWAP2 SWAP1 POP JUMP JUMPDEST PUSH2 0x1FC0 DUP2 PUSH2 0x1C8E JUMP JUMPDEST DUP3 MSTORE POP POP JUMP JUMPDEST PUSH0 PUSH2 0x1FD1 DUP4 DUP4 PUSH2 0x1FB7 JUMP JUMPDEST PUSH1 0x20 DUP4 ADD SWAP1 POP SWAP3 SWAP2 POP POP JUMP JUMPDEST PUSH0 PUSH1 0x20 DUP3 ADD SWAP1 POP SWAP2 SWAP1 POP JUMP JUMPDEST PUSH0 PUSH2 0x1FF3 DUP3 PUSH2 0x1F8E JUMP JUMPDEST PUSH2 0x1FFD DUP2 DUP6 PUSH2 0x1F98 JUMP JUMPDEST SWAP4 POP PUSH2 0x2008 DUP4 PUSH2 0x1FA8 JUMP JUMPDEST DUP1 PUSH0 JUMPDEST DUP4 DUP2 LT ISZERO PUSH2 0x2038 JUMPI DUP2 MLOAD PUSH2 0x201F DUP9 DUP3 PUSH2 0x1FC6 JUMP JUMPDEST SWAP8 POP PUSH2 0x202A DUP4 PUSH2 0x1FDD JUMP JUMPDEST SWAP3 POP POP PUSH1 0x1 DUP2 ADD SWAP1 POP PUSH2 0x200B JUMP JUMPDEST POP DUP6 SWAP4 POP POP POP POP SWAP3 SWAP2 POP POP JUMP JUMPDEST PUSH0 DUP3 DUP3 MSTORE PUSH1 0x20 DUP3 ADD SWAP1 POP SWAP3 SWAP2 POP POP JUMP JUMPDEST PUSH0 PUSH2 0x205F DUP3 PUSH2 0x1BD7 JUMP JUMPDEST PUSH2 0x2069 DUP2 DUP6 PUSH2 0x2045 JUMP JUMPDEST SWAP4 POP PUSH2 0x2079 DUP2 DUP6 PUSH1 0x20 DUP7 ADD PUSH2 0x1BF1 JUMP JUMPDEST PUSH2 0x2082 DUP2 PUSH2 0x1BFF JUMP JUMPDEST DUP5 ADD SWAP2 POP POP SWAP3 SWAP2 POP POP JUMP JUMPDEST PUSH2 0x2096 DUP2 PUSH2 0x1CC9 JUMP JUMPDEST DUP3 MSTORE POP POP JUMP JUMPDEST PUSH2 0x20A5 DUP2 PUSH2 0x1D3A JUMP JUMPDEST DUP3 MSTORE POP POP JUMP JUMPDEST PUSH0 PUSH2 0x120 DUP4 ADD PUSH0 DUP4 ADD MLOAD DUP5 DUP3 SUB PUSH0 DUP7 ADD MSTORE PUSH2 0x20C6 DUP3 DUP3 PUSH2 0x1FE9 JUMP JUMPDEST SWAP2 POP POP PUSH1 0x20 DUP4 ADD MLOAD DUP5 DUP3 SUB PUSH1 0x20 DUP7 ADD MSTORE PUSH2 0x20E0 DUP3 DUP3 PUSH2 0x2055 JUMP JUMPDEST SWAP2 POP POP PUSH1 0x40 DUP4 ADD MLOAD PUSH2 0x20F5 PUSH1 0x40 DUP7 ADD DUP3 PUSH2 0x208D JUMP JUMPDEST POP PUSH1 0x60 DUP4 ADD MLOAD PUSH2 0x2108 PUSH1 0x60 DUP7 ADD DUP3 PUSH2 0x208D JUMP JUMPDEST POP PUSH1 0x80 DUP4 ADD MLOAD PUSH2 0x211B PUSH1 0x80 DUP7 ADD DUP3 PUSH2 0x208D JUMP JUMPDEST POP PUSH1 0xA0 DUP4 ADD MLOAD PUSH2 0x212E PUSH1 0xA0 DUP7 ADD DUP3 PUSH2 0x208D JUMP JUMPDEST POP PUSH1 0xC0 DUP4 ADD MLOAD PUSH2 0x2141 PUSH1 0xC0 DUP7 ADD DUP3 PUSH2 0x208D JUMP JUMPDEST POP PUSH1 0xE0 DUP4 ADD MLOAD PUSH2 0x2154 PUSH1 0xE0 DUP7 ADD DUP3 PUSH2 0x209C JUMP JUMPDEST POP PUSH2 0x100 DUP4 ADD MLOAD PUSH2 0x2169 PUSH2 0x100 DUP7 ADD DUP3 PUSH2 0x209C JUMP JUMPDEST POP DUP1 SWAP2 POP POP SWAP3 SWAP2 POP POP JUMP JUMPDEST PUSH0 PUSH1 0x20 DUP3 ADD SWAP1 POP DUP2 DUP2 SUB PUSH0 DUP4 ADD MSTORE PUSH2 0x218C DUP2 DUP5 PUSH2 0x20AB JUMP JUMPDEST SWAP1 POP SWAP3 SWAP2 POP POP JUMP JUMPDEST PUSH0 PUSH0 PUSH1 0x40 DUP4 DUP6 SUB SLT ISZERO PUSH2 0x21AA JUMPI PUSH2 0x21A9 PUSH2 0x1C67 JUMP JUMPDEST JUMPDEST PUSH0 PUSH2 0x21B7 DUP6 DUP3 DUP7 ADD PUSH2 0x1CB5 JUMP JUMPDEST SWAP3 POP POP PUSH1 0x20 PUSH2 0x21C8 DUP6 DUP3 DUP7 ADD PUSH2 0x1CB5 JUMP JUMPDEST SWAP2 POP POP SWAP3 POP SWAP3 SWAP1 POP JUMP JUMPDEST PUSH32 0x4E487B7100000000000000000000000000000000000000000000000000000000 PUSH0 MSTORE PUSH1 0x22 PUSH1 0x4 MSTORE PUSH1 0x24 PUSH0 REVERT JUMPDEST PUSH0 PUSH1 0x2 DUP3 DIV SWAP1 POP PUSH1 0x1 DUP3 AND DUP1 PUSH2 0x2216 JUMPI PUSH1 0x7F DUP3 AND SWAP2 POP JUMPDEST PUSH1 0x20 DUP3 LT DUP2 SUB PUSH2 0x2229 JUMPI PUSH2 0x2228 PUSH2 0x21D2 JUMP JUMPDEST JUMPDEST POP SWAP2 SWAP1 POP JUMP JUMPDEST PUSH32 0x4E487B7100000000000000000000000000000000000000000000000000000000 PUSH0 MSTORE PUSH1 0x11 PUSH1 0x4 MSTORE PUSH1 0x24 PUSH0 REVERT JUMPDEST PUSH0 PUSH2 0x2266 DUP3 PUSH2 0x1CC9 JUMP JUMPDEST SWAP2 POP PUSH2 0x2271 DUP4 PUSH2 0x1CC9 JUMP JUMPDEST SWAP3 POP DUP3 DUP3 ADD SWAP1 POP DUP1 DUP3 GT ISZERO PUSH2 0x2289 JUMPI PUSH2 0x2288 PUSH2 0x222F JUMP JUMPDEST JUMPDEST SWAP3 SWAP2 POP POP JUMP JUMPDEST PUSH0 DUP3 SWAP1 POP SWAP3 SWAP2 POP POP JUMP JUMPDEST PUSH32 0x4E487B7100000000000000000000000000000000000000000000000000000000 PUSH0 MSTORE PUSH1 0x41 PUSH1 0x4 MSTORE PUSH1 0x24 PUSH0 REVERT JUMPDEST PUSH0 DUP2 SWAP1 POP DUP2 PUSH0 MSTORE PUSH1 0x20 PUSH0 KECCAK256 SWAP1 POP SWAP2 SWAP1 POP JUMP JUMPDEST PUSH0 PUSH1 0x20 PUSH1 0x1F DUP4 ADD DIV SWAP1 POP SWAP2 SWAP1 POP JUMP JUMPDEST PUSH0 DUP3 DUP3 SHL SWAP1 POP SWAP3 SWAP2 POP POP JUMP JUMPDEST PUSH0 PUSH1 0x8 DUP4 MUL PUSH2 0x2322 PUSH32 0xFFFFFFFFFFFFFFFFFFFFFFFFFFFFFFFFFFFFFFFFFFFFFFFFFFFFFFFFFFFFFFFF DUP3 PUSH2 0x22E7 JUMP JUMPDEST PUSH2 0x232C DUP7 DUP4 PUSH2 0x22E7 JUMP JUMPDEST SWAP6 POP DUP1 NOT DUP5 AND SWAP4 POP DUP1 DUP7 AND DUP5 OR SWAP3 POP POP POP SWAP4 SWAP3 POP POP POP JUMP JUMPDEST PUSH0 DUP2 SWAP1 POP SWAP2 SWAP1 POP JUMP JUMPDEST PUSH0 PUSH2 0x2367 PUSH2 0x2362 PUSH2 0x235D DUP5 PUSH2 0x1CC9 JUMP JUMPDEST PUSH2 0x2344 JUMP JUMPDEST PUSH2 0x1CC9 JUMP JUMPDEST SWAP1 POP SWAP2 SWAP1 POP JUMP JUMPDEST PUSH0 DUP2 SWAP1 POP SWAP2 SWAP1 POP JUMP JUMPDEST PUSH2 0x2380 DUP4 PUSH2 0x234D JUMP JUMPDEST PUSH2 0x2394 PUSH2 0x238C DUP3 PUSH2 0x236E JUMP JUMPDEST DUP5 DUP5 SLOAD PUSH2 0x22F3 JUMP JUMPDEST DUP3 SSTORE POP POP POP POP JUMP JUMPDEST PUSH0 PUSH0 SWAP1 POP SWAP1 JUMP JUMPDEST PUSH2 0x23AB PUSH2 0x239C JUMP JUMPDEST PUSH2 0x23B6 DUP2 DUP5 DUP5 PUSH2 0x2377 JUMP JUMPDEST POP POP POP JUMP JUMPDEST JUMPDEST DUP2 DUP2 LT ISZERO PUSH2 0x23D9 JUMPI PUSH2 0x23CE PUSH0 DUP3 PUSH2 0x23A3 JUMP JUMPDEST PUSH1 0x1 DUP2 ADD SWAP1 POP PUSH2 0x23BC JUMP JUMPDEST POP POP JUMP JUMPDEST PUSH1 0x1F DUP3 GT ISZERO PUSH2 0x241E JUMPI PUSH2 0x23EF DUP2 PUSH2 0x22C6 JUMP JUMPDEST PUSH2 0x23F8 DUP5 PUSH2 0x22D8 JUMP JUMPDEST DUP2 ADD PUSH1 0x20 DUP6 LT ISZERO PUSH2 0x2407 JUMPI DUP2 SWAP1 POP JUMPDEST PUSH2 0x241B PUSH2 0x2413 DUP6 PUSH2 0x22D8 JUMP JUMPDEST DUP4 ADD DUP3 PUSH2 0x23BB JUMP JUMPDEST POP POP JUMPDEST POP POP POP JUMP JUMPDEST PUSH0 DUP3 DUP3 SHR SWAP1 POP SWAP3 SWAP2 POP POP JUMP JUMPDEST PUSH0 PUSH2 0x243E PUSH0 NOT DUP5 PUSH1 0x8 MUL PUSH2 0x2423 JUMP JUMPDEST NOT DUP1 DUP4 AND SWAP2 POP POP SWAP3 SWAP2 POP POP JUMP JUMPDEST PUSH0 PUSH2 0x2456 DUP4 DUP4 PUSH2 0x242F JUMP JUMPDEST SWAP2 POP DUP3 PUSH1 0x2 MUL DUP3 OR SWAP1 POP SWAP3 SWAP2 POP POP JUMP JUMPDEST PUSH2 0x2470 DUP4 DUP4 PUSH2 0x228F JUMP JUMPDEST PUSH8 0xFFFFFFFFFFFFFFFF DUP2 GT ISZERO PUSH2 0x2489 JUMPI PUSH2 0x2488 PUSH2 0x2299 JUMP JUMPDEST JUMPDEST PUSH2 0x2493 DUP3 SLOAD PUSH2 0x21FF JUMP JUMPDEST PUSH2 0x249E DUP3 DUP3 DUP6 PUSH2 0x23DD JUMP JUMPDEST PUSH0 PUSH1 0x1F DUP4 GT PUSH1 0x1 DUP2 EQ PUSH2 0x24CB JUMPI PUSH0 DUP5 ISZERO PUSH2 0x24B9 JUMPI DUP3 DUP8 ADD CALLDATALOAD SWAP1 POP JUMPDEST PUSH2 0x24C3 DUP6 DUP3 PUSH2 0x244B JUMP JUMPDEST DUP7 SSTORE POP PUSH2 0x252A JUMP JUMPDEST PUSH1 0x1F NOT DUP5 AND PUSH2 0x24D9 DUP7 PUSH2 0x22C6 JUMP JUMPDEST PUSH0 JUMPDEST DUP3 DUP2 LT ISZERO PUSH2 0x2500 JUMPI DUP5 DUP10 ADD CALLDATALOAD DUP3 SSTORE PUSH1 0x1 DUP3 ADD SWAP2 POP PUSH1 0x20 DUP6 ADD SWAP5 POP PUSH1 0x20 DUP2 ADD SWAP1 POP PUSH2 0x24DB JUMP JUMPDEST DUP7 DUP4 LT ISZERO PUSH2 0x251D JUMPI DUP5 DUP10 ADD CALLDATALOAD PUSH2 0x2519 PUSH1 0x1F DUP10 AND DUP3 PUSH2 0x242F JUMP JUMPDEST DUP4 SSTORE POP JUMPDEST PUSH1 0x1 PUSH1 0x2 DUP9 MUL ADD DUP9 SSTORE POP POP POP JUMPDEST POP POP POP POP POP POP POP JUMP JUMPDEST PUSH0 PUSH2 0x253D DUP3 PUSH2 0x1CC9 JUMP JUMPDEST SWAP2 POP PUSH2 0x2548 DUP4 PUSH2 0x1CC9 JUMP JUMPDEST SWAP3 POP DUP3 DUP3 SUB SWAP1 POP DUP2 DUP2 GT ISZERO PUSH2 0x2560 JUMPI PUSH2 0x255F PUSH2 0x222F JUMP JUMPDEST JUMPDEST SWAP3 SWAP2 POP POP JUMP JUMPDEST DUP3 DUP2 DUP4 CALLDATACOPY PUSH0 DUP4 DUP4 ADD MSTORE POP POP POP JUMP JUMPDEST PUSH0 PUSH2 0x257F DUP4 DUP6 PUSH2 0x1BE1 JUMP JUMPDEST SWAP4 POP PUSH2 0x258C DUP4 DUP6 DUP5 PUSH2 0x2566 JUMP JUMPDEST PUSH2 0x2595 DUP4 PUSH2 0x1BFF JUMP JUMPDEST DUP5 ADD SWAP1 POP SWAP4 SWAP3 POP POP POP JUMP JUMPDEST PUSH0 PUSH1 0x60 DUP3 ADD SWAP1 POP PUSH2 0x25B3 PUSH0 DUP4 ADD DUP8 PUSH2 0x1D6D JUMP JUMPDEST PUSH2 0x25C0 PUSH1 0x20 DUP4 ADD DUP7 PUSH2 0x1D6D JUMP JUMPDEST DUP2 DUP2 SUB PUSH1 0x40 DUP4 ADD MSTORE PUSH2 0x25D3 DUP2 DUP5 DUP7 PUSH2 0x2574 JUMP JUMPDEST SWAP1 POP SWAP6 SWAP5 POP POP POP POP POP JUMP JUMPDEST PUSH32 0x4E487B7100000000000000000000000000000000000000000000000000000000 PUSH0 MSTORE PUSH1 0x32 PUSH1 0x4 MSTORE PUSH1 0x24 PUSH0 REVERT JUMPDEST PUSH32 0x4E487B7100000000000000000000000000000000000000000000000000000000 PUSH0 MSTORE PUSH1 0x21 PUSH1 0x4 MSTORE PUSH1 0x24 PUSH0 REVERT JUMPDEST PUSH1 0x3 DUP2 LT PUSH2 0x2649 JUMPI PUSH2 0x2648 PUSH2 0x260B JUMP JUMPDEST JUMPDEST POP JUMP JUMPDEST PUSH0 DUP2 SWAP1 POP PUSH2 0x2659 DUP3 PUSH2 0x2638 JUMP JUMPDEST SWAP2 SWAP1 POP JUMP JUMPDEST PUSH0 PUSH2 0x2668 DUP3 PUSH2 0x264C JUMP JUMPDEST SWAP1 POP SWAP2 SWAP1 POP JUMP JUMPDEST PUSH2 0x2678 DUP2 PUSH2 0x265E JUMP JUMPDEST DUP3 MSTORE POP POP JUMP JUMPDEST PUSH0 PUSH1 0x40 DUP3 ADD SWAP1 POP PUSH2 0x2691 PUSH0 DUP4 ADD DUP6 PUSH2 0x266F JUMP JUMPDEST PUSH2 0x269E PUSH1 0x20 DUP4 ADD DUP5 PUSH2 0x1D6D JUMP JUMPDEST SWAP4 SWAP3 POP POP POP JUMP JUMPDEST PUSH32 0x45524332303A2064656372656173656420616C6C6F77616E63652062656C6F77 PUSH0 DUP3 ADD MSTORE PUSH32 0x207A65726F000000000000000000000000000000000000000000000000000000 PUSH1 0x20 DUP3 ADD MSTORE POP JUMP JUMPDEST PUSH0 PUSH2 0x26FF PUSH1 0x25 DUP4 PUSH2 0x1BE1 JUMP JUMPDEST SWAP2 POP PUSH2 0x270A DUP3 PUSH2 0x26A5 JUMP JUMPDEST PUSH1 0x40 DUP3 ADD SWAP1 POP SWAP2 SWAP1 POP JUMP JUMPDEST PUSH0 PUSH1 0x20 DUP3 ADD SWAP1 POP DUP2 DUP2 SUB PUSH0 DUP4 ADD MSTORE PUSH2 0x272C DUP2 PUSH2 0x26F3 JUMP JUMPDEST SWAP1 POP SWAP2 SWAP1 POP JUMP JUMPDEST PUSH32 0x45524332303A20617070726F76652066726F6D20746865207A65726F20616464 PUSH0 DUP3 ADD MSTORE PUSH32 0x7265737300000000000000000000000000000000000000000000000000000000 PUSH1 0x20 DUP3 ADD MSTORE POP JUMP JUMPDEST PUSH0 PUSH2 0x278D PUSH1 0x24 DUP4 PUSH2 0x1BE1 JUMP JUMPDEST SWAP2 POP PUSH2 0x2798 DUP3 PUSH2 0x2733 JUMP JUMPDEST PUSH1 0x40 DUP3 ADD SWAP1 POP SWAP2 SWAP1 POP JUMP JUMPDEST PUSH0 PUSH1 0x20 DUP3 ADD SWAP1 POP DUP2 DUP2 SUB PUSH0 DUP4 ADD MSTORE PUSH2 0x27BA DUP2 PUSH2 0x2781 JUMP JUMPDEST SWAP1 POP SWAP2 SWAP1 POP JUMP JUMPDEST PUSH32 0x45524332303A20617070726F766520746F20746865207A65726F206164647265 PUSH0 DUP3 ADD MSTORE PUSH32 0x7373000000000000000000000000000000000000000000000000000000000000 PUSH1 0x20 DUP3 ADD MSTORE POP JUMP JUMPDEST PUSH0 PUSH2 0x281B PUSH1 0x22 DUP4 PUSH2 0x1BE1 JUMP JUMPDEST SWAP2 POP PUSH2 0x2826 DUP3 PUSH2 0x27C1 JUMP JUMPDEST PUSH1 0x40 DUP3 ADD SWAP1 POP SWAP2 SWAP1 POP JUMP JUMPDEST PUSH0 PUSH1 0x20 DUP3 ADD SWAP1 POP DUP2 DUP2 SUB PUSH0 DUP4 ADD MSTORE PUSH2 0x2848 DUP2 PUSH2 0x280F JUMP JUMPDEST SWAP1 POP SWAP2 SWAP1 POP JUMP JUMPDEST PUSH32 0x45524332303A20696E73756666696369656E7420616C6C6F77616E6365000000 PUSH0 DUP3 ADD MSTORE POP JUMP JUMPDEST PUSH0 PUSH2 0x2883 PUSH1 0x1D DUP4 PUSH2 0x1BE1 JUMP JUMPDEST SWAP2 POP PUSH2 0x288E DUP3 PUSH2 0x284F JUMP JUMPDEST PUSH1 0x20 DUP3 ADD SWAP1 POP SWAP2 SWAP1 POP JUMP JUMPDEST PUSH0 PUSH1 0x20 DUP3 ADD SWAP1 POP DUP2 DUP2 SUB PUSH0 DUP4 ADD MSTORE PUSH2 0x28B0 DUP2 PUSH2 0x2877 JUMP JUMPDEST SWAP1 POP SWAP2 SWAP1 POP JUMP JUMPDEST PUSH32 0x45524332303A207472616E736665722066726F6D20746865207A65726F206164 PUSH0 DUP3 ADD MSTORE PUSH32 0x6472657373000000000000000000000000000000000000000000000000000000 PUSH1 0x20 DUP3 ADD MSTORE POP JUMP JUMPDEST PUSH0 PUSH2 0x2911 PUSH1 0x25 DUP4 PUSH2 0x1BE1 JUMP JUMPDEST SWAP2 POP PUSH2 0x291C DUP3 PUSH2 0x28B7 JUMP JUMPDEST PUSH1 0x40 DUP3 ADD SWAP1 POP SWAP2 SWAP1 POP JUMP JUMPDEST PUSH0 PUSH1 0x20 DUP3 ADD SWAP1 POP DUP2 DUP2 SUB PUSH0 DUP4 ADD MSTORE PUSH2 0x293E DUP2 PUSH2 0x2905 JUMP JUMPDEST SWAP1 POP SWAP2 SWAP1 POP JUMP JUMPDEST PUSH32 0x45524332303A207472616E7366657220746F20746865207A65726F2061646472 PUSH0 DUP3 ADD MSTORE PUSH32 0x6573730000000000000000000000000000000000000000000000000000000000 PUSH1 0x20 DUP3 ADD MSTORE POP JUMP JUMPDEST PUSH0 PUSH2 0x299F PUSH1 0x23 DUP4 PUSH2 0x1BE1 JUMP JUMPDEST SWAP2 POP PUSH2 0x29AA DUP3 PUSH2 0x2945 JUMP JUMPDEST PUSH1 0x40 DUP3 ADD SWAP1 POP SWAP2 SWAP1 POP JUMP JUMPDEST PUSH0 PUSH1 0x20 DUP3 ADD SWAP1 POP DUP2 DUP2 SUB PUSH0 DUP4 ADD MSTORE PUSH2 0x29CC DUP2 PUSH2 0x2993 JUMP JUMPDEST SWAP1 POP SWAP2 SWAP1 POP JUMP JUMPDEST PUSH32 0x45524332303A207472616E7366657220616D6F756E7420657863656564732062 PUSH0 DUP3 ADD MSTORE PUSH32 0x616C616E63650000000000000000000000000000000000000000000000000000 PUSH1 0x20 DUP3 ADD MSTORE POP JUMP JUMPDEST PUSH0 PUSH2 0x2A2D PUSH1 0x26 DUP4 PUSH2 0x1BE1 JUMP JUMPDEST SWAP2 POP PUSH2 0x2A38 DUP3 PUSH2 0x29D3 JUMP JUMPDEST PUSH1 0x40 DUP3 ADD SWAP1 POP SWAP2 SWAP1 POP JUMP JUMPDEST PUSH0 PUSH1 0x20 DUP3 ADD SWAP1 POP DUP2 DUP2 SUB PUSH0 DUP4 ADD MSTORE PUSH2 0x2A5A DUP2 PUSH2 0x2A21 JUMP JUMPDEST SWAP1 POP SWAP2 SWAP1 POP JUMP JUMPDEST PUSH32 0x45524332303A206D696E7420746F20746865207A65726F206164647265737300 PUSH0 DUP3 ADD MSTORE POP JUMP JUMPDEST PUSH0 PUSH2 0x2A95 PUSH1 0x1F DUP4 PUSH2 0x1BE1 JUMP JUMPDEST SWAP2 POP PUSH2 0x2AA0 DUP3 PUSH2 0x2A61 JUMP JUMPDEST PUSH1 0x20 DUP3 ADD SWAP1 POP SWAP2 SWAP1 POP JUMP JUMPDEST PUSH0 PUSH1 0x20 DUP3 ADD SWAP1 POP DUP2 DUP2 SUB PUSH0 DUP4 ADD MSTORE PUSH2 0x2AC2 DUP2 PUSH2 0x2A89 JUMP JUMPDEST SWAP1 POP SWAP2 SWAP1 POP JUMP JUMPDEST PUSH32 0x4552433230536E617073686F743A206964206973203000000000000000000000 PUSH0 DUP3 ADD MSTORE POP JUMP JUMPDEST PUSH0 PUSH2 0x2AFD PUSH1 0x16 DUP4 PUSH2 0x1BE1 JUMP JUMPDEST SWAP2 POP PUSH2 0x2B08 DUP3 PUSH2 0x2AC9 JUMP JUMPDEST PUSH1 0x20 DUP3 ADD SWAP1 POP SWAP2 SWAP1 POP JUMP JUMPDEST PUSH0 PUSH1 0x20 DUP3 ADD SWAP1 POP DUP2 DUP2 SUB PUSH0 DUP4 ADD MSTORE PUSH2 0x2B2A DUP2 PUSH2 0x2AF1 JUMP JUMPDEST SWAP1 POP SWAP2 SWAP1 POP JUMP JUMPDEST PUSH32 0x4552433230536E617073686F743A206E6F6E6578697374656E74206964000000 PUSH0 DUP3 ADD MSTORE POP JUMP JUMPDEST PUSH0 PUSH2 0x2B65 PUSH1 0x1D DUP4 PUSH2 0x1BE1 JUMP JUMPDEST SWAP2 POP PUSH2 0x2B70 DUP3 PUSH2 0x2B31 JUMP JUMPDEST PUSH1 0x20 DUP3 ADD SWAP1 POP SWAP2 SWAP1 POP JUMP JUMPDEST PUSH0 PUSH1 0x20 DUP3 ADD SWAP1 POP DUP2 DUP2 SUB PUSH0 DUP4 ADD MSTORE PUSH2 0x2B92 DUP2 PUSH2 0x2B59 JUMP JUMPDEST SWAP1 POP SWAP2 SWAP1 POP JUMP JUMPDEST PUSH32 0x4E487B7100000000000000000000000000000000000000000000000000000000 PUSH0 MSTORE PUSH1 0x12 PUSH1 0x4 MSTORE PUSH1 0x24 PUSH0 REVERT JUMPDEST PUSH0 PUSH2 0x2BD0 DUP3 PUSH2 0x1CC9 JUMP JUMPDEST SWAP2 POP PUSH2 0x2BDB DUP4 PUSH2 0x1CC9 JUMP JUMPDEST SWAP3 POP DUP3 PUSH2 0x2BEB JUMPI PUSH2 0x2BEA PUSH2 0x2B99 JUMP JUMPDEST JUMPDEST DUP3 DUP3 DIV SWAP1 POP SWAP3 SWAP2 POP POP JUMP INVALID LOG2 PUSH5 0x6970667358 0x22 SLT KECCAK256 MCOPY SHL LOG3 0x25 GAS PUSH32 0xF63F262F7858B055F89F5815D13C1E05C2245ECDFED7F536212C64736F6C6343 STOP ADDMOD 0x1F STOP CALLER "
		},
		"gasEstimates": {
			"creation": {
				"codeDepositCost": "2261600",
				"executionCost": "infinite",
				"totalCost": "infinite"
			},
			"external": {
				"allowance(address,address)": "infinite",
				"approve(address,uint256)": "infinite",
				"balanceOf(address)": "2939",
				"balanceOfAt(address,uint256)": "infinite",
				"claim()": "infinite",
				"claimAmount()": "348",
				"createIssue(string,uint256)": "infinite",
				"decimals()": "449",
				"decreaseAllowance(address,uint256)": "infinite",
				"getIssue(uint256)": "infinite",
				"increaseAllowance(address,uint256)": "infinite",
				"maxSupply()": "413",
				"name()": "infinite",
				"symbol()": "infinite",
				"tokensClaimed(address)": "2922",
				"totalSupply()": "2500",
				"totalSupplyAt(uint256)": "infinite",
				"transfer(address,uint256)": "infinite",
				"transferFrom(address,address,uint256)": "infinite",
				"vote(uint256,uint8)": "infinite"
			}
		},
		"methodIdentifiers": {
			"allowance(address,address)": "dd62ed3e",
			"approve(address,uint256)": "095ea7b3",
			"balanceOf(address)": "70a08231",
			"balanceOfAt(address,uint256)": "4ee2cd7e",
			"claim()": "4e71d92d",
			"claimAmount()": "830953ab",
			"createIssue(string,uint256)": "8615d855",
			"decimals()": "313ce567",
			"decreaseAllowance(address,uint256)": "a457c2d7",
			"getIssue(uint256)": "976b3113",
			"increaseAllowance(address,uint256)": "39509351",
			"maxSupply()": "d5abeb01",
			"name()": "06fdde03",
			"symbol()": "95d89b41",
			"tokensClaimed(address)": "624601b6",
			"totalSupply()": "18160ddd",
			"totalSupplyAt(uint256)": "981b24d0",
			"transfer(address,uint256)": "a9059cbb",
			"transferFrom(address,address,uint256)": "23b872dd",
			"vote(uint256,uint8)": "943e8216"
		}
	},
	"abi": [
		{
			"inputs": [
				{
					"internalType": "string",
					"name": "_name",
					"type": "string"
				},
				{
					"internalType": "string",
					"name": "_symbol",
					"type": "string"
				}
			],
			"stateMutability": "nonpayable",
			"type": "constructor"
		},
		{
			"inputs": [],
			"name": "AllTokensClaimed",
			"type": "error"
		},
		{
			"inputs": [],
			"name": "AlreadyVoted",
			"type": "error"
		},
		{
			"inputs": [
				{
					"internalType": "uint256",
					"name": "issueId",
					"type": "uint256"
				}
			],
			"name": "InvalidIssue",
			"type": "error"
		},
		{
			"inputs": [],
			"name": "NoTokensHeld",
			"type": "error"
		},
		{
			"inputs": [],
			"name": "QuorumTooHigh",
			"type": "error"
		},
		{
			"inputs": [],
			"name": "QuorumZero",
			"type": "error"
		},
		{
			"inputs": [],
			"name": "TokensClaimed",
			"type": "error"
		},
		{
			"inputs": [],
			"name": "VotingClosed",
			"type": "error"
		},
		{
			"anonymous": false,
			"inputs": [
				{
					"indexed": true,
					"internalType": "address",
					"name": "owner",
					"type": "address"
				},
				{
					"indexed": true,
					"internalType": "address",
					"name": "spender",
					"type": "address"
				},
				{
					"indexed": false,
					"internalType": "uint256",
					"name": "value",
					"type": "uint256"
				}
			],
			"name": "Approval",
			"type": "event"
		},
		{
			"anonymous": false,
			"inputs": [
				{
					"indexed": true,
					"internalType": "address",
					"name": "account",
					"type": "address"
				},
				{
					"indexed": false,
					"internalType": "uint256",
					"name": "amount",
					"type": "uint256"
				}
			],
			"name": "Claimed",
			"type": "event"
		},
		{
			"anonymous": false,
			"inputs": [
				{
					"indexed": true,
					"internalType": "uint256",
					"name": "issueId",
					"type": "uint256"
				},
				{
					"indexed": true,
					"internalType": "address",
					"name": "creator",
					"type": "address"
				},
				{
					"indexed": false,
					"internalType": "uint256",
					"name": "quorum",
					"type": "uint256"
				},
				{
					"indexed": false,
					"internalType": "uint256",
					"name": "snapshotId",
					"type": "uint256"
				},
				{
					"indexed": false,
					"internalType": "string",
					"name": "desc",
					"type": "string"
				}
			],
			"name": "IssueCreated",
			"type": "event"
		},
		{
			"anonymous": false,
			"inputs": [
				{
					"indexed": false,
					"internalType": "uint256",
					"name": "id",
					"type": "uint256"
				}
			],
			"name": "Snapshot",
			"type": "event"
		},
		{
			"anonymous": false,
			"inputs": [
				{
					"indexed": true,
					"internalType": "address",
					"name": "from",
					"type": "address"
				},
				{
					"indexed": true,
					"internalType": "address",
					"name": "to",
					"type": "address"
				},
				{
					"indexed": false,
					"internalType": "uint256",
					"name": "value",
					"type": "uint256"
				}
			],
			"name": "Transfer",
			"type": "event"
		},
		{
			"anonymous": false,
			"inputs": [
				{
					"indexed": true,
					"internalType": "uint256",
					"name": "issueId",
					"type": "uint256"
				},
				{
					"indexed": true,
					"internalType": "address",
					"name": "voter",
					"type": "address"
				},
				{
					"indexed": false,
					"internalType": "enum WeightedVoting.Vote",
					"name": "vote",
					"type": "uint8"
				},
				{
					"indexed": false,
					"internalType": "uint256",
					"name": "weight",
					"type": "uint256"
				}
			],
			"name": "Voted",
			"type": "event"
		},
		{
			"inputs": [
				{
					"internalType": "address",
					"name": "owner",
					"type": "address"
				},
				{
					"internalType": "address",
					"name": "spender",
					"type": "address"
				}
			],
			"name": "allowance",
			"outputs": [
				{
					"internalType": "uint256",
					"name": "",
					"type": "uint256"
				}
			],
			"stateMutability": "view",
			"type": "function"
		},
		{
			"inputs": [
				{
					"internalType": "address",
					"name": "spender",
					"type": "address"
				},
				{
					"internalType": "uint256",
					"name": "amount",
					"type": "uint256"
				}
			],
			"name": "approve",
			"outputs": [
				{
					"internalType": "bool",
					"name": "",
					"type": "bool"
				}
			],
			"stateMutability": "nonpayable",
			"type": "function"
		},
		{
			"inputs": [
				{
					"internalType": "address",
					"name": "account",
					"type": "address"
				}
			],
			"name": "balanceOf",
			"outputs": [
				{
					"internalType": "uint256",
					"name": "",
					"type": "uint256"
				}
			],
			"stateMutability": "view",
			"type": "function"
		},
		{
			"inputs": [
				{
					"internalType": "address",
					"name": "account",
					"type": "address"
				},
				{
					"internalType": "uint256",
					"name": "snapshotId",
					"type": "uint256"
				}
			],
			"name": "balanceOfAt",
			"outputs": [
				{
					"internalType": "uint256",
					"name": "",
					"type": "uint256"
				}
			],
			"stateMutability": "view",
			"type": "function"
		},
		{
			"inputs": [],
			"name": "claim",
			"outputs": [],
			"stateMutability": "nonpayable",
			"type": "function"
		},
		{
			"inputs": [],
			"name": "claimAmount",
			"outputs": [
				{
					"internalType": "uint256",
					"name": "",
					"type": "uint256"
				}
			],
			"stateMutability": "view",
			"type": "function"
		},
		{
			"inputs": [
				{
					"internalType": "string",
					"name": "_issueDesc",
					"type": "string"
				},
				{
					"internalType": "uint256",
					"name": "_quorum",
					"type": "uint256"
				}
			],
			"name": "createIssue",
			"outputs": [
				{
					"internalType": "uint256",
					"name": "",
					"type": "uint256"
				}
			],
			"stateMutability": "nonpayable",
			"type": "function"
		},
		{
			"inputs": [],
			"name": "decimals",
			"outputs": [
				{
					"internalType": "uint8",
					"name": "",
					"type": "uint8"
				}
			],
			"stateMutability": "pure",
			"type": "function"
		},
		{
			"inputs": [
				{
					"internalType": "address",
					"name": "spender",
					"type": "address"
				},
				{
					"internalType": "uint256",
					"name": "subtractedValue",
					"type": "uint256"
				}
			],
			"name": "decreaseAllowance",
			"outputs": [
				{
					"internalType": "bool",
					"name": "",
					"type": "bool"
				}
			],
			"stateMutability": "nonpayable",
			"type": "function"
		},
		{
			"inputs": [
				{
					"internalType": "uint256",
					"name": "_issueId",
					"type": "uint256"
				}
			],
			"name": "getIssue",
			"outputs": [
				{
					"components": [
						{
							"internalType": "address[]",
							"name": "voters",
							"type": "address[]"
						},
						{
							"internalType": "string",
							"name": "issueDesc",
							"type": "string"
						},
						{
							"internalType": "uint256",
							"name": "quorum",
							"type": "uint256"
						},
						{
							"internalType": "uint256",
							"name": "totalVotes",
							"type": "uint256"
						},
						{
							"internalType": "uint256",
							"name": "votesFor",
							"type": "uint256"
						},
						{
							"internalType": "uint256",
							"name": "votesAgainst",
							"type": "uint256"
						},
						{
							"internalType": "uint256",
							"name": "votesAbstain",
							"type": "uint256"
						},
						{
							"internalType": "bool",
							"name": "passed",
							"type": "bool"
						},
						{
							"internalType": "bool",
							"name": "closed",
							"type": "bool"
						}
					],
					"internalType": "struct WeightedVoting.SerializedIssue",
					"name": "",
					"type": "tuple"
				}
			],
			"stateMutability": "view",
			"type": "function"
		},
		{
			"inputs": [
				{
					"internalType": "address",
					"name": "spender",
					"type": "address"
				},
				{
					"internalType": "uint256",
					"name": "addedValue",
					"type": "uint256"
				}
			],
			"name": "increaseAllowance",
			"outputs": [
				{
					"internalType": "bool",
					"name": "",
					"type": "bool"
				}
			],
			"stateMutability": "nonpayable",
			"type": "function"
		},
		{
			"inputs": [],
			"name": "maxSupply",
			"outputs": [
				{
					"internalType": "uint256",
					"name": "",
					"type": "uint256"
				}
			],
			"stateMutability": "view",
			"type": "function"
		},
		{
			"inputs": [],
			"name": "name",
			"outputs": [
				{
					"internalType": "string",
					"name": "",
					"type": "string"
				}
			],
			"stateMutability": "view",
			"type": "function"
		},
		{
			"inputs": [],
			"name": "symbol",
			"outputs": [
				{
					"internalType": "string",
					"name": "",
					"type": "string"
				}
			],
			"stateMutability": "view",
			"type": "function"
		},
		{
			"inputs": [
				{
					"internalType": "address",
					"name": "",
					"type": "address"
				}
			],
			"name": "tokensClaimed",
			"outputs": [
				{
					"internalType": "bool",
					"name": "",
					"type": "bool"
				}
			],
			"stateMutability": "view",
			"type": "function"
		},
		{
			"inputs": [],
			"name": "totalSupply",
			"outputs": [
				{
					"internalType": "uint256",
					"name": "",
					"type": "uint256"
				}
			],
			"stateMutability": "view",
			"type": "function"
		},
		{
			"inputs": [
				{
					"internalType": "uint256",
					"name": "snapshotId",
					"type": "uint256"
				}
			],
			"name": "totalSupplyAt",
			"outputs": [
				{
					"internalType": "uint256",
					"name": "",
					"type": "uint256"
				}
			],
			"stateMutability": "view",
			"type": "function"
		},
		{
			"inputs": [
				{
					"internalType": "address",
					"name": "to",
					"type": "address"
				},
				{
					"internalType": "uint256",
					"name": "amount",
					"type": "uint256"
				}
			],
			"name": "transfer",
			"outputs": [
				{
					"internalType": "bool",
					"name": "",
					"type": "bool"
				}
			],
			"stateMutability": "nonpayable",
			"type": "function"
		},
		{
			"inputs": [
				{
					"internalType": "address",
					"name": "from",
					"type": "address"
				},
				{
					"internalType": "address",
					"name": "to",
					"type": "address"
				},
				{
					"internalType": "uint256",
					"name": "amount",
					"type": "uint256"
				}
			],
			"name": "transferFrom",
			"outputs": [
				{
					"internalType": "bool",
					"name": "",
					"type": "bool"
				}
			],
			"stateMutability": "nonpayable",
			"type": "function"
		},
		{
			"inputs": [
				{
					"internalType": "uint256",
					"name": "_issueId",
					"type": "uint256"
				},
				{
					"internalType": "enum WeightedVoting.Vote",
					"name": "_vote",
					"type": "uint8"
				}
			],
			"name": "vote",
			"outputs": [],
			"stateMutability": "nonpayable",
			"type": "function"
		}
	]
}